{
	"data": {
		"bytecode": {
			"linkReferences": {},
			"object": "6080604052348015600e575f80fd5b5060016004556130a6806100215f395ff3fe6080604052600436106101db575f3560e01c8063affed0e011610101578063e19a9dd911610094578063f08a032311610063578063f08a0323146105fc578063f698da251461061b578063f8dc5dd91461062f578063ffa1ad741461064e57610217565b8063e19a9dd91461058b578063e318b52b146105aa578063e75235b8146105c9578063e86637db146105dd57610217565b8063cc2f8452116100d0578063cc2f845214610501578063d4d9bdcd1461052e578063d8d11f781461054d578063e009cfde1461056c57610217565b8063affed0e01461048f578063b4faba09146104a4578063b63e800d146104c3578063c4ca3a9c146104e257610217565b80635624b25b116101795780636a761202116101485780636a761202146104065780637d83297414610419578063934f3a111461044f578063a0e67e2b1461046e57610217565b80635624b25b146103715780635ae6bd371461039d578063610b5925146103c8578063694e80c3146103e757610217565b80632f54bf6e116101b55780632f54bf6e146102ea5780633408e47014610309578063468721a7146103255780635229073f1461034457610217565b80630d582f131461027657806312fb68e0146102975780632d9ad53d146102b657610217565b366102175760405134815233907f3d0ce9bfc3ed7d6862dbb28b2dea94561fe714a1b4d019aa8af39730d1ad7c3d9060200160405180910390a2005b348015610222575f80fd5b507f6c9a6c4a39284e37ed1cf53d337577d14212a4870fb976a4366c693b939918d580548061024d57005b365f80373360601b36525f80601436015f80855af190503d5f803e80610271573d5ffd5b503d5ff35b348015610281575f80fd5b506102956102903660046124ec565b61067e565b005b3480156102a2575f80fd5b506102956102b13660046125b2565b6107dc565b3480156102c1575f80fd5b506102d56102d0366004612621565b610c30565b60405190151581526020015b60405180910390f35b3480156102f5575f80fd5b506102d5610304366004612621565b610c69565b348015610314575f80fd5b50465b6040519081526020016102e1565b348015610330575f80fd5b506102d561033f36600461264a565b610c9f565b34801561034f575f80fd5b5061036361035e36600461264a565b610cf4565b6040516102e19291906126dd565b34801561037c575f80fd5b5061039061038b3660046126f7565b610d28565b6040516102e19190612717565b3480156103a8575f80fd5b506103176103b7366004612729565b60076020525f908152604090205481565b3480156103d3575f80fd5b506102956103e2366004612621565b610da1565b3480156103f2575f80fd5b50610295610401366004612729565b610ee1565b6102d5610414366004612784565b610f79565b348015610424575f80fd5b506103176104333660046124ec565b600860209081525f928352604080842090915290825290205481565b34801561045a575f80fd5b50610295610469366004612853565b611020565b348015610479575f80fd5b5061048261106a565b6040516102e191906128fd565b34801561049a575f80fd5b5061031760055481565b3480156104af575f80fd5b506102956104be36600461290f565b611157565b3480156104ce575f80fd5b506102956104dd36600461295b565b611176565b3480156104ed575f80fd5b506103176104fc366004612a44565b611294565b34801561050c575f80fd5b5061052061051b3660046124ec565b61132a565b6040516102e1929190612aaf565b348015610539575f80fd5b50610295610548366004612729565b611420565b348015610558575f80fd5b50610317610567366004612ad8565b6114b3565b348015610577575f80fd5b50610295610586366004612b90565b6114df565b348015610596575f80fd5b506102956105a5366004612621565b61160c565b3480156105b5575f80fd5b506102956105c4366004612bc7565b611671565b3480156105d4575f80fd5b50600454610317565b3480156105e8575f80fd5b506103906105f7366004612ad8565b61185d565b348015610607575f80fd5b50610295610616366004612621565b611934565b348015610626575f80fd5b5061031761199d565b34801561063a575f80fd5b50610295610649366004612c0f565b6119f3565b348015610659575f80fd5b50610390604051806040016040528060058152602001640312e332e360dc1b81525081565b610686611b64565b6001600160a01b038216158015906106a857506001600160a01b038216600114155b80156106bd57506001600160a01b0382163014155b6106e25760405162461bcd60e51b81526004016106d990612c4d565b60405180910390fd5b6001600160a01b038281165f9081526002602052604090205416156107195760405162461bcd60e51b81526004016106d990612c6c565b60026020527fe90b7bceb6e7df5418fb78d8ee546e97c83a08bbccc01a0644d599ccd2a7c2e080546001600160a01b038481165f818152604081208054939094166001600160a01b03199384161790935560018352835490911617909155600380549161078583612c9f565b90915550506040516001600160a01b03831681527f9465fa0c962cc76958e6373a993326400c1c94f8be2fe3a952adfa7f60b2ea269060200160405180910390a180600454146107d8576107d881610ee1565b5050565b6107e7816041611b9d565b8251101561081f5760405162461bcd60e51b8152602060048201526005602482015264047533032360dc1b60448201526064016106d9565b5f80805f805f5b86811015610c24576041818102890160208101516040820151919092015160ff16955090935091505f8490036109f4579193508391610866876041611b9d565b82101561089d5760405162461bcd60e51b8152602060048201526005602482015264475330323160d81b60448201526064016106d9565b87516108aa836020611bd4565b11156108e05760405162461bcd60e51b815260206004820152600560248201526423a998191960d91b60448201526064016106d9565b6020828901810151895190916109039083906108fd908790611bd4565b90611bd4565b11156109395760405162461bcd60e51b8152602060048201526005602482015264475330323360d81b60448201526064016106d9565b6040516320c13b0b60e01b8082528a8501602001916001600160a01b038916906320c13b0b9061096f908f908690600401612cb7565b602060405180830381865afa15801561098a573d5f803e3d5ffd5b505050506040513d601f19601f820116820180604052508101906109ae9190612cdb565b6001600160e01b031916146109ed5760405162461bcd60e51b815260206004820152600560248201526411d4cc0c8d60da1b60448201526064016106d9565b5050610b94565b8360ff16600103610a75579193508391336001600160a01b0384161480610a3c57506001600160a01b0385165f9081526008602090815260408083208d845290915290205415155b610a705760405162461bcd60e51b8152602060048201526005602482015264475330323560d81b60448201526064016106d9565b610b94565b601e8460ff161115610b37576040517f19457468657265756d205369676e6564204d6573736167653a0a3332000000006020820152603c81018b9052600190605c0160405160208183030381529060405280519060200120600486610ada9190612d02565b604080515f8152602081018083529390935260ff90911690820152606081018590526080810184905260a0016020604051602081039080840390855afa158015610b26573d5f803e3d5ffd5b505050602060405103519450610b94565b604080515f8152602081018083528c905260ff861691810191909152606081018490526080810183905260019060a0016020604051602081039080840390855afa158015610b87573d5f803e3d5ffd5b5050506020604051035194505b856001600160a01b0316856001600160a01b0316118015610bcd57506001600160a01b038581165f908152600260205260409020541615155b8015610be357506001600160a01b038516600114155b610c175760405162461bcd60e51b815260206004820152600560248201526423a998191b60d91b60448201526064016106d9565b9394508493600101610826565b50505050505050505050565b5f60016001600160a01b03831614801590610c6357506001600160a01b038281165f908152600160205260409020541615155b92915050565b5f6001600160a01b038216600114801590610c635750506001600160a01b039081165f9081526002602052604090205416151590565b5f7fb648d3644f584ed1c2232d53c46d87e693586486ad0d1175f8656013110b714e3386868686604051610cd7959493929190612d4f565b60405180910390a1610ceb85858585611bee565b95945050505050565b5f6060610d0386868686610c9f565b915060405160203d0181016040523d81523d5f602083013e8091505094509492505050565b60605f610d36836020612d9a565b6001600160401b03811115610d4d57610d4d612516565b6040519080825280601f01601f191660200182016040528015610d77576020820181803683370190505b5090505f5b83811015610d995784810154602080830284010152600101610d7c565b509392505050565b610da9611b64565b6001600160a01b03811615801590610dcb57506001600160a01b038116600114155b610dff5760405162461bcd60e51b8152602060048201526005602482015264475331303160d81b60448201526064016106d9565b6001600160a01b038181165f908152600160205260409020541615610e4e5760405162461bcd60e51b815260206004820152600560248201526423a998981960d91b60448201526064016106d9565b600160208181527fcc69885fda6bcc1a4ace058b4a62bf5e179ea78fd58a1ccd71c22cc9b688792f80546001600160a01b038581165f81815260408082208054949095166001600160a01b031994851617909455959095528254168417909155519182527fecdf3a3effea5783a3c4c2140e677577666428d44ed9d474a0b3a4c9943f844091015b60405180910390a150565b610ee9611b64565b600354811115610f0b5760405162461bcd60e51b81526004016106d990612db1565b6001811015610f445760405162461bcd60e51b815260206004820152600560248201526423a999181960d91b60448201526064016106d9565b60048190556040518181527f610f7ff2b304ae8903c3de74c60c6ab1f7d6226b3f52c5161905bb5ad4039c9390602001610ed6565b60055460045460408051602081019390935233908301526060828101919091525f9160800160405160208183030381529060405290507f66753cd2356569ee081232e3be8909b950e0a76c1f8460c3a5e3c2be32b11bed8d8d8d8d8d8d8d8d8d8d8d8c604051610ff49c9b9a99989796959493929190612df8565b60405180910390a161100f8d8d8d8d8d8d8d8d8d8d8d611cc1565b9d9c50505050505050505050505050565b600454806110585760405162461bcd60e51b8152602060048201526005602482015264475330303160d81b60448201526064016106d9565b611064848484846107dc565b50505050565b60605f6003546001600160401b0381111561108757611087612516565b6040519080825280602002602001820160405280156110b0578160200160208202803683370190505b5060015f90815260026020527fe90b7bceb6e7df5418fb78d8ee546e97c83a08bbccc01a0644d599ccd2a7c2e054919250906001600160a01b03165b6001600160a01b03811660011461114f578083838151811061111057611110612e8e565b6001600160a01b039283166020918202929092018101919091529181165f9081526002909252604090912054168161114781612c9f565b9250506110ec565b509092915050565b5f80825160208401855af4805f52503d6020523d5f60403e60403d015ffd5b6111b38a8a808060200260200160405190810160405280939291908181526020018383602002808284375f920191909152508c9250611ff8915050565b6001600160a01b038416156111ea576111ea847f6c9a6c4a39284e37ed1cf53d337577d14212a4870fb976a4366c693b939918d555565b6112298787878080601f0160208091040260200160405190810160405280939291908181526020018383808284375f920191909152506121ce92505050565b811561123f5761123d825f600186856122c5565b505b336001600160a01b03167f141df868a6331af528e38c83b7aa03edc19be66e37ae67f9285bf4f8e3c6a1a88b8b8b8b89604051611280959493929190612ea2565b60405180910390a250505050505050505050565b5f805a90506112db878787878080601f0160208091040260200160405190810160405280939291908181526020018383808284375f9201919091525089925050505a6123c9565b6112e3575f80fd5b5f5a6112ef9083612f0d565b90508060405160200161130491815260200190565b60408051601f198184030181529082905262461bcd60e51b82526106d991600401612717565b60605f826001600160401b0381111561134557611345612516565b60405190808252806020026020018201604052801561136e578160200160208202803683370190505b506001600160a01b038086165f9081526001602052604081205492945091165b6001600160a01b038116158015906113b057506001600160a01b038116600114155b80156113bb57508482105b1561141257808483815181106113d3576113d3612e8e565b6001600160a01b039283166020918202929092018101919091529181165f9081526001909252604090912054168161140a81612c9f565b92505061138e565b908352919491935090915050565b335f908152600260205260409020546001600160a01b031661146c5760405162461bcd60e51b8152602060048201526005602482015264047533033360dc1b60448201526064016106d9565b335f818152600860209081526040808320858452909152808220600190555183917ff2a0eb156472d1440255b0d7c1e19cc07115d1051fe605b0dce69acfec884d9c91a350565b5f6114c78c8c8c8c8c8c8c8c8c8c8c61185d565b8051906020012090509b9a5050505050505050505050565b6114e7611b64565b6001600160a01b0381161580159061150957506001600160a01b038116600114155b61153d5760405162461bcd60e51b8152602060048201526005602482015264475331303160d81b60448201526064016106d9565b6001600160a01b038281165f908152600160205260409020548116908216146115905760405162461bcd60e51b8152602060048201526005602482015264475331303360d81b60448201526064016106d9565b6001600160a01b038181165f818152600160209081526040808320805488871685528285208054919097166001600160a01b03199182161790965592849052825490941690915591519081527faab4fa2b463f581b2b32cb3b7e3b704b9ce37cc209b5fb4d77e593ace405427691015b60405180910390a15050565b611614611b64565b7f4a204f620c8c5ccdca3fd54d003badd85ba500436a431f0cbda4f558c93c34c88181556040516001600160a01b03831681527f1151116914515bc0891ff9047a6cb32cf902546f83066499bcf8ba33d2353fa290602001611600565b611679611b64565b6001600160a01b0381161580159061169b57506001600160a01b038116600114155b80156116b057506001600160a01b0381163014155b6116cc5760405162461bcd60e51b81526004016106d990612c4d565b6001600160a01b038181165f9081526002602052604090205416156117035760405162461bcd60e51b81526004016106d990612c6c565b6001600160a01b0382161580159061172557506001600160a01b038216600114155b6117415760405162461bcd60e51b81526004016106d990612c4d565b6001600160a01b038381165f908152600260205260409020548116908316146117945760405162461bcd60e51b8152602060048201526005602482015264475332303560d81b60448201526064016106d9565b6001600160a01b038281165f818152600260209081526040808320805487871680865283862080549289166001600160a01b0319938416179055968a1685528285208054821690971790965592849052825490941690915591519081527ff8d49fc529812e9a7c5c50e69c20f0dccc0db8fa95c98bc58cc9a4f1c1299eaf910160405180910390a16040516001600160a01b03821681527f9465fa0c962cc76958e6373a993326400c1c94f8be2fe3a952adfa7f60b2ea269060200160405180910390a1505050565b60605f7fbb8310d486368db6bd6f849402fdd73ad53d316b5a4b2644ad6efe0f941286d85f1b8d8d8d8d604051611895929190612f20565b6040519081900381206118bb949392918e908e908e908e908e908e908e90602001612f2f565b60408051601f1981840301815291905280516020909101209050601960f81b600160f81b6118e761199d565b6040516001600160f81b031993841660208201529290911660218301526022820152604281018290526062016040516020818303038152906040529150509b9a5050505050505050505050565b61193c611b64565b611964817f6c9a6c4a39284e37ed1cf53d337577d14212a4870fb976a4366c693b939918d555565b6040516001600160a01b03821681527f5ac6c46c93c8d0e53714ba3b53db3e7c046da994313d7ed0d192028bc7c228b090602001610ed6565b5f7f47e79534a245952e8b16893a336b85a3d9ea9fa8c573f3d803afb92a794692184660408051602081019390935282015230606082015260800160405160208183030381529060405280519060200120905090565b6119fb611b64565b806001600354611a0b9190612f0d565b1015611a295760405162461bcd60e51b81526004016106d990612db1565b6001600160a01b03821615801590611a4b57506001600160a01b038216600114155b611a675760405162461bcd60e51b81526004016106d990612c4d565b6001600160a01b038381165f90815260026020526040902054811690831614611aba5760405162461bcd60e51b8152602060048201526005602482015264475332303560d81b60448201526064016106d9565b6001600160a01b038281165f81815260026020526040808220805488861684529183208054929095166001600160a01b03199283161790945591815282549091169091556003805491611b0c83612f9e565b90915550506040516001600160a01b03831681527ff8d49fc529812e9a7c5c50e69c20f0dccc0db8fa95c98bc58cc9a4f1c1299eaf9060200160405180910390a18060045414611b5f57611b5f81610ee1565b505050565b333014611b9b5760405162461bcd60e51b8152602060048201526005602482015264475330333160d81b60448201526064016106d9565b565b5f825f03611bac57505f610c63565b5f611bb78385612d9a565b905082611bc48583612fb3565b14611bcd575f80fd5b9392505050565b5f80611be08385612fd2565b905083811015611bcd575f80fd5b5f33600114801590611c165750335f908152600160205260409020546001600160a01b031615155b611c4a5760405162461bcd60e51b815260206004820152600560248201526411d4cc4c0d60da1b60448201526064016106d9565b611c57858585855a6123c9565b90508015611c8e5760405133907f6895c13664aa4f67288b25d7a21d7aaa34916e355fb9b6fae0a139a9085becb8905f90a2611cb9565b60405133907facd2c8702804128fdb0db2bb49f6d127dd0181c13fd45dbfe16de0930e2bd375905f90a25b949350505050565b5f805f611cd98e8e8e8e8e8e8e8e8e8e60055461185d565b600580549192505f611cea83612c9f565b9091555050805160208201209150611d03828286611020565b505f611d2d7f4a204f620c8c5ccdca3fd54d003badd85ba500436a431f0cbda4f558c93c34c85490565b90506001600160a01b03811615611dae57806001600160a01b03166375f0bb528f8f8f8f8f8f8f8f8f8f8f336040518d63ffffffff1660e01b8152600401611d809c9b9a99989796959493929190612fe5565b5f604051808303815f87803b158015611d97575f80fd5b505af1158015611da9573d5f803e3d5ffd5b505050505b611dda611dbd8a6109c4612fd2565b603f611dca8c6040612d9a565b611dd49190612fb3565b9061240b565b611de6906101f4612fd2565b5a1015611e1d5760405162461bcd60e51b8152602060048201526005602482015264047533031360dc1b60448201526064016106d9565b5f5a9050611e8b8f8f8f8f8080601f0160208091040260200160405190810160405280939291908181526020018383808284375f81840152601f19601f820116905080830192505050505050508e8c5f14611e78578e6123c9565b6109c45a611e869190612f0d565b6123c9565b9350611e985a8290612421565b90508380611ea557508915155b80611eaf57508715155b611ee35760405162461bcd60e51b8152602060048201526005602482015264475330313360d81b60448201526064016106d9565b5f8815611efa57611ef7828b8b8b8b6122c5565b90505b8415611f3e5760408051858152602081018390527f442e715f626346e8c54381002da614f62bee8d27386535b2521ec8540898556e910160405180910390a1611f78565b60408051858152602081018390527f23428b18acfb3ea64b08dc0c1d296ea9c09702c09083ca5272e64d115b687d23910160405180910390a15b50506001600160a01b03811615611fe757604051631264e26d60e31b81526004810183905283151560248201526001600160a01b038216906393271368906044015f604051808303815f87803b158015611fd0575f80fd5b505af1158015611fe2573d5f803e3d5ffd5b505050505b50509b9a5050505050505050505050565b600454156120305760405162461bcd60e51b8152602060048201526005602482015264047533230360dc1b60448201526064016106d9565b81518111156120515760405162461bcd60e51b81526004016106d990612db1565b600181101561208a5760405162461bcd60e51b815260206004820152600560248201526423a999181960d91b60448201526064016106d9565b60015f5b835181101561219c575f8482815181106120aa576120aa612e8e565b602002602001015190505f6001600160a01b0316816001600160a01b0316141580156120e057506001600160a01b038116600114155b80156120f557506001600160a01b0381163014155b80156121135750806001600160a01b0316836001600160a01b031614155b61212f5760405162461bcd60e51b81526004016106d990612c4d565b6001600160a01b038181165f9081526002602052604090205416156121665760405162461bcd60e51b81526004016106d990612c6c565b6001600160a01b039283165f90815260026020526040902080546001600160a01b0319169382169390931790925560010161208e565b506001600160a01b03165f90815260026020526040902080546001600160a01b03191660011790559051600355600455565b60015f8190526020527fcc69885fda6bcc1a4ace058b4a62bf5e179ea78fd58a1ccd71c22cc9b688792f546001600160a01b0316156122375760405162461bcd60e51b8152602060048201526005602482015264047533130360dc1b60448201526064016106d9565b60015f81905260208190527fcc69885fda6bcc1a4ace058b4a62bf5e179ea78fd58a1ccd71c22cc9b688792f80546001600160a01b03191690911790556001600160a01b038216156107d857612291825f8360015a6123c9565b6107d85760405162461bcd60e51b8152602060048201526005602482015264047533030360dc1b60448201526064016106d9565b5f806001600160a01b038316156122dc57826122de565b325b90506001600160a01b038416612370576123103a86106122fe573a612300565b855b61230a8989611bd4565b90611b9d565b6040519092506001600160a01b0382169083156108fc029084905f818181858888f1935050505061236b5760405162461bcd60e51b8152602060048201526005602482015264475330313160d81b60448201526064016106d9565b6123bf565b61237e8561230a8989611bd4565b915061238b848284612439565b6123bf5760405162461bcd60e51b815260206004820152600560248201526423a998189960d91b60448201526064016106d9565b5095945050505050565b5f60018360018111156123de576123de612d1b565b036123f5575f808551602087018986f49050610ceb565b5f80855160208701888a87f19695505050505050565b5f8183101561241a5781611bcd565b5090919050565b5f8282111561242e575f80fd5b5f611cb98385612f0d565b604080516001600160a01b03841660248201526044808201849052825180830390910181526064909101909152602080820180516001600160e01b031663a9059cbb60e01b17815282515f93929184919082896127105a03f13d80156124a957602081146124b1575f93506124bb565b8193506124bb565b5f51158215171593505b5050509392505050565b6001600160a01b03811681146124d9575f80fd5b50565b80356124e7816124c5565b919050565b5f80604083850312156124fd575f80fd5b8235612508816124c5565b946020939093013593505050565b634e487b7160e01b5f52604160045260245ffd5b5f82601f830112612539575f80fd5b81356001600160401b038082111561255357612553612516565b604051601f8301601f19908116603f0116810190828211818310171561257b5761257b612516565b81604052838152866020858801011115612593575f80fd5b836020870160208301375f602085830101528094505050505092915050565b5f805f80608085870312156125c5575f80fd5b8435935060208501356001600160401b03808211156125e2575f80fd5b6125ee8883890161252a565b94506040870135915080821115612603575f80fd5b506126108782880161252a565b949793965093946060013593505050565b5f60208284031215612631575f80fd5b8135611bcd816124c5565b8035600281106124e7575f80fd5b5f805f806080858703121561265d575f80fd5b8435612668816124c5565b93506020850135925060408501356001600160401b03811115612689575f80fd5b6126958782880161252a565b9250506126a46060860161263c565b905092959194509250565b5f81518084528060208401602086015e5f602082860101526020601f19601f83011685010191505092915050565b8215158152604060208201525f611cb960408301846126af565b5f8060408385031215612708575f80fd5b50508035926020909101359150565b602081525f611bcd60208301846126af565b5f60208284031215612739575f80fd5b5035919050565b5f8083601f840112612750575f80fd5b5081356001600160401b03811115612766575f80fd5b60208301915083602082850101111561277d575f80fd5b9250929050565b5f805f805f805f805f805f6101408c8e03121561279f575f80fd5b6127a88c6124dc565b9a5060208c013599506001600160401b038060408e013511156127c9575f80fd5b6127d98e60408f01358f01612740565b909a5098506127ea60608e0161263c565b975060808d0135965060a08d0135955060c08d0135945061280d60e08e016124dc565b935061281c6101008e016124dc565b9250806101208e0135111561282f575f80fd5b506128418d6101208e01358e0161252a565b90509295989b509295989b9093969950565b5f805f60608486031215612865575f80fd5b8335925060208401356001600160401b0380821115612882575f80fd5b61288e8783880161252a565b935060408601359150808211156128a3575f80fd5b506128b08682870161252a565b9150509250925092565b5f815180845260208085019450602084015f5b838110156128f25781516001600160a01b0316875295820195908201906001016128cd565b509495945050505050565b602081525f611bcd60208301846128ba565b5f8060408385031215612920575f80fd5b823561292b816124c5565b915060208301356001600160401b03811115612945575f80fd5b6129518582860161252a565b9150509250929050565b5f805f805f805f805f806101008b8d031215612975575f80fd5b8a356001600160401b038082111561298b575f80fd5b818d0191508d601f83011261299e575f80fd5b8135818111156129ac575f80fd5b8e60208260051b85010111156129c0575f80fd5b60208381019d50909b508d013599506129db60408e016124dc565b985060608d01359150808211156129f0575f80fd5b506129fd8d828e01612740565b9097509550612a10905060808c016124dc565b9350612a1e60a08c016124dc565b925060c08b01359150612a3360e08c016124dc565b90509295989b9194979a5092959850565b5f805f805f60808688031215612a58575f80fd5b8535612a63816124c5565b94506020860135935060408601356001600160401b03811115612a84575f80fd5b612a9088828901612740565b9094509250612aa390506060870161263c565b90509295509295909350565b604081525f612ac160408301856128ba565b905060018060a01b03831660208301529392505050565b5f805f805f805f805f805f6101408c8e031215612af3575f80fd5b8b35612afe816124c5565b9a5060208c0135995060408c01356001600160401b03811115612b1f575f80fd5b612b2b8e828f01612740565b909a509850612b3e905060608d0161263c565b965060808c0135955060a08c0135945060c08c0135935060e08c0135612b63816124c5565b92506101008c0135612b74816124c5565b809250506101208c013590509295989b509295989b9093969950565b5f8060408385031215612ba1575f80fd5b8235612bac816124c5565b91506020830135612bbc816124c5565b809150509250929050565b5f805f60608486031215612bd9575f80fd5b8335612be4816124c5565b92506020840135612bf4816124c5565b91506040840135612c04816124c5565b809150509250925092565b5f805f60608486031215612c21575f80fd5b8335612c2c816124c5565b92506020840135612c3c816124c5565b929592945050506040919091013590565b602080825260059082015264475332303360d81b604082015260600190565b60208082526005908201526411d4cc8c0d60da1b604082015260600190565b634e487b7160e01b5f52601160045260245ffd5b5f60018201612cb057612cb0612c8b565b5060010190565b604081525f612cc960408301856126af565b8281036020840152610ceb81856126af565b5f60208284031215612ceb575f80fd5b81516001600160e01b031981168114611bcd575f80fd5b60ff8281168282160390811115610c6357610c63612c8b565b634e487b7160e01b5f52602160045260245ffd5b60028110612d4b57634e487b7160e01b5f52602160045260245ffd5b9052565b6001600160a01b038681168252851660208201526040810184905260a0606082018190525f90612d81908301856126af565b9050612d906080830184612d2f565b9695505050505050565b8082028115828204841417610c6357610c63612c8b565b602080825260059082015264475332303160d81b604082015260600190565b81835281816020850137505f828201602090810191909152601f909101601f19169091010190565b5f60018060a01b03808f1683528d60208401526101606040840152612e2261016084018d8f612dd0565b612e2f606085018d612d2f565b8a60808501528960a08501528860c085015281881660e0850152818716610100850152838103610120850152612e6581876126af565b915050828103610140840152612e7b81856126af565b9f9e505050505050505050505050505050565b634e487b7160e01b5f52603260045260245ffd5b608080825281018590525f8660a08301825b88811015612ee4578235612ec7816124c5565b6001600160a01b0316825260209283019290910190600101612eb4565b50602084019690965250506001600160a01b039283166040820152911660609091015292915050565b81810381811115610c6357610c63612c8b565b818382375f9101908152919050565b8b81526001600160a01b038b81166020830152604082018b9052606082018a9052610160820190612f63608084018b612d2f565b60a083019890985260c082019690965260e0810194909452918516610100840152909316610120820152610140019190915295945050505050565b5f81612fac57612fac612c8b565b505f190190565b5f82612fcd57634e487b7160e01b5f52601260045260245ffd5b500490565b80820180821115610c6357610c63612c8b565b5f60018060a01b03808f1683528d6020840152610160604084015261300f61016084018d8f612dd0565b61301c606085018d612d2f565b8a60808501528960a08501528860c085015281881660e085015281871661010085015283810361012085015261305281876126af565b925050808416610140840152509d9c5050505050505050505050505056fea2646970667358221220d51f48be19849467617321b1263f9a5fef175f44ccf1300c9a71e7c97c5992ff64736f6c63430008190033",
			"opcodes": "PUSH1 0x80 PUSH1 0x40 MSTORE CALLVALUE DUP1 ISZERO PUSH1 0xE JUMPI PUSH0 DUP1 REVERT JUMPDEST POP PUSH1 0x1 PUSH1 0x4 SSTORE PUSH2 0x30A6 DUP1 PUSH2 0x21 PUSH0 CODECOPY PUSH0 RETURN INVALID PUSH1 0x80 PUSH1 0x40 MSTORE PUSH1 0x4 CALLDATASIZE LT PUSH2 0x1DB JUMPI PUSH0 CALLDATALOAD PUSH1 0xE0 SHR DUP1 PUSH4 0xAFFED0E0 GT PUSH2 0x101 JUMPI DUP1 PUSH4 0xE19A9DD9 GT PUSH2 0x94 JUMPI DUP1 PUSH4 0xF08A0323 GT PUSH2 0x63 JUMPI DUP1 PUSH4 0xF08A0323 EQ PUSH2 0x5FC JUMPI DUP1 PUSH4 0xF698DA25 EQ PUSH2 0x61B JUMPI DUP1 PUSH4 0xF8DC5DD9 EQ PUSH2 0x62F JUMPI DUP1 PUSH4 0xFFA1AD74 EQ PUSH2 0x64E JUMPI PUSH2 0x217 JUMP JUMPDEST DUP1 PUSH4 0xE19A9DD9 EQ PUSH2 0x58B JUMPI DUP1 PUSH4 0xE318B52B EQ PUSH2 0x5AA JUMPI DUP1 PUSH4 0xE75235B8 EQ PUSH2 0x5C9 JUMPI DUP1 PUSH4 0xE86637DB EQ PUSH2 0x5DD JUMPI PUSH2 0x217 JUMP JUMPDEST DUP1 PUSH4 0xCC2F8452 GT PUSH2 0xD0 JUMPI DUP1 PUSH4 0xCC2F8452 EQ PUSH2 0x501 JUMPI DUP1 PUSH4 0xD4D9BDCD EQ PUSH2 0x52E JUMPI DUP1 PUSH4 0xD8D11F78 EQ PUSH2 0x54D JUMPI DUP1 PUSH4 0xE009CFDE EQ PUSH2 0x56C JUMPI PUSH2 0x217 JUMP JUMPDEST DUP1 PUSH4 0xAFFED0E0 EQ PUSH2 0x48F JUMPI DUP1 PUSH4 0xB4FABA09 EQ PUSH2 0x4A4 JUMPI DUP1 PUSH4 0xB63E800D EQ PUSH2 0x4C3 JUMPI DUP1 PUSH4 0xC4CA3A9C EQ PUSH2 0x4E2 JUMPI PUSH2 0x217 JUMP JUMPDEST DUP1 PUSH4 0x5624B25B GT PUSH2 0x179 JUMPI DUP1 PUSH4 0x6A761202 GT PUSH2 0x148 JUMPI DUP1 PUSH4 0x6A761202 EQ PUSH2 0x406 JUMPI DUP1 PUSH4 0x7D832974 EQ PUSH2 0x419 JUMPI DUP1 PUSH4 0x934F3A11 EQ PUSH2 0x44F JUMPI DUP1 PUSH4 0xA0E67E2B EQ PUSH2 0x46E JUMPI PUSH2 0x217 JUMP JUMPDEST DUP1 PUSH4 0x5624B25B EQ PUSH2 0x371 JUMPI DUP1 PUSH4 0x5AE6BD37 EQ PUSH2 0x39D JUMPI DUP1 PUSH4 0x610B5925 EQ PUSH2 0x3C8 JUMPI DUP1 PUSH4 0x694E80C3 EQ PUSH2 0x3E7 JUMPI PUSH2 0x217 JUMP JUMPDEST DUP1 PUSH4 0x2F54BF6E GT PUSH2 0x1B5 JUMPI DUP1 PUSH4 0x2F54BF6E EQ PUSH2 0x2EA JUMPI DUP1 PUSH4 0x3408E470 EQ PUSH2 0x309 JUMPI DUP1 PUSH4 0x468721A7 EQ PUSH2 0x325 JUMPI DUP1 PUSH4 0x5229073F EQ PUSH2 0x344 JUMPI PUSH2 0x217 JUMP JUMPDEST DUP1 PUSH4 0xD582F13 EQ PUSH2 0x276 JUMPI DUP1 PUSH4 0x12FB68E0 EQ PUSH2 0x297 JUMPI DUP1 PUSH4 0x2D9AD53D EQ PUSH2 0x2B6 JUMPI PUSH2 0x217 JUMP JUMPDEST CALLDATASIZE PUSH2 0x217 JUMPI PUSH1 0x40 MLOAD CALLVALUE DUP2 MSTORE CALLER SWAP1 PUSH32 0x3D0CE9BFC3ED7D6862DBB28B2DEA94561FE714A1B4D019AA8AF39730D1AD7C3D SWAP1 PUSH1 0x20 ADD PUSH1 0x40 MLOAD DUP1 SWAP2 SUB SWAP1 LOG2 STOP JUMPDEST CALLVALUE DUP1 ISZERO PUSH2 0x222 JUMPI PUSH0 DUP1 REVERT JUMPDEST POP PUSH32 0x6C9A6C4A39284E37ED1CF53D337577D14212A4870FB976A4366C693B939918D5 DUP1 SLOAD DUP1 PUSH2 0x24D JUMPI STOP JUMPDEST CALLDATASIZE PUSH0 DUP1 CALLDATACOPY CALLER PUSH1 0x60 SHL CALLDATASIZE MSTORE PUSH0 DUP1 PUSH1 0x14 CALLDATASIZE ADD PUSH0 DUP1 DUP6 GAS CALL SWAP1 POP RETURNDATASIZE PUSH0 DUP1 RETURNDATACOPY DUP1 PUSH2 0x271 JUMPI RETURNDATASIZE PUSH0 REVERT JUMPDEST POP RETURNDATASIZE PUSH0 RETURN JUMPDEST CALLVALUE DUP1 ISZERO PUSH2 0x281 JUMPI PUSH0 DUP1 REVERT JUMPDEST POP PUSH2 0x295 PUSH2 0x290 CALLDATASIZE PUSH1 0x4 PUSH2 0x24EC JUMP JUMPDEST PUSH2 0x67E JUMP JUMPDEST STOP JUMPDEST CALLVALUE DUP1 ISZERO PUSH2 0x2A2 JUMPI PUSH0 DUP1 REVERT JUMPDEST POP PUSH2 0x295 PUSH2 0x2B1 CALLDATASIZE PUSH1 0x4 PUSH2 0x25B2 JUMP JUMPDEST PUSH2 0x7DC JUMP JUMPDEST CALLVALUE DUP1 ISZERO PUSH2 0x2C1 JUMPI PUSH0 DUP1 REVERT JUMPDEST POP PUSH2 0x2D5 PUSH2 0x2D0 CALLDATASIZE PUSH1 0x4 PUSH2 0x2621 JUMP JUMPDEST PUSH2 0xC30 JUMP JUMPDEST PUSH1 0x40 MLOAD SWAP1 ISZERO ISZERO DUP2 MSTORE PUSH1 0x20 ADD JUMPDEST PUSH1 0x40 MLOAD DUP1 SWAP2 SUB SWAP1 RETURN JUMPDEST CALLVALUE DUP1 ISZERO PUSH2 0x2F5 JUMPI PUSH0 DUP1 REVERT JUMPDEST POP PUSH2 0x2D5 PUSH2 0x304 CALLDATASIZE PUSH1 0x4 PUSH2 0x2621 JUMP JUMPDEST PUSH2 0xC69 JUMP JUMPDEST CALLVALUE DUP1 ISZERO PUSH2 0x314 JUMPI PUSH0 DUP1 REVERT JUMPDEST POP CHAINID JUMPDEST PUSH1 0x40 MLOAD SWAP1 DUP2 MSTORE PUSH1 0x20 ADD PUSH2 0x2E1 JUMP JUMPDEST CALLVALUE DUP1 ISZERO PUSH2 0x330 JUMPI PUSH0 DUP1 REVERT JUMPDEST POP PUSH2 0x2D5 PUSH2 0x33F CALLDATASIZE PUSH1 0x4 PUSH2 0x264A JUMP JUMPDEST PUSH2 0xC9F JUMP JUMPDEST CALLVALUE DUP1 ISZERO PUSH2 0x34F JUMPI PUSH0 DUP1 REVERT JUMPDEST POP PUSH2 0x363 PUSH2 0x35E CALLDATASIZE PUSH1 0x4 PUSH2 0x264A JUMP JUMPDEST PUSH2 0xCF4 JUMP JUMPDEST PUSH1 0x40 MLOAD PUSH2 0x2E1 SWAP3 SWAP2 SWAP1 PUSH2 0x26DD JUMP JUMPDEST CALLVALUE DUP1 ISZERO PUSH2 0x37C JUMPI PUSH0 DUP1 REVERT JUMPDEST POP PUSH2 0x390 PUSH2 0x38B CALLDATASIZE PUSH1 0x4 PUSH2 0x26F7 JUMP JUMPDEST PUSH2 0xD28 JUMP JUMPDEST PUSH1 0x40 MLOAD PUSH2 0x2E1 SWAP2 SWAP1 PUSH2 0x2717 JUMP JUMPDEST CALLVALUE DUP1 ISZERO PUSH2 0x3A8 JUMPI PUSH0 DUP1 REVERT JUMPDEST POP PUSH2 0x317 PUSH2 0x3B7 CALLDATASIZE PUSH1 0x4 PUSH2 0x2729 JUMP JUMPDEST PUSH1 0x7 PUSH1 0x20 MSTORE PUSH0 SWAP1 DUP2 MSTORE PUSH1 0x40 SWAP1 KECCAK256 SLOAD DUP2 JUMP JUMPDEST CALLVALUE DUP1 ISZERO PUSH2 0x3D3 JUMPI PUSH0 DUP1 REVERT JUMPDEST POP PUSH2 0x295 PUSH2 0x3E2 CALLDATASIZE PUSH1 0x4 PUSH2 0x2621 JUMP JUMPDEST PUSH2 0xDA1 JUMP JUMPDEST CALLVALUE DUP1 ISZERO PUSH2 0x3F2 JUMPI PUSH0 DUP1 REVERT JUMPDEST POP PUSH2 0x295 PUSH2 0x401 CALLDATASIZE PUSH1 0x4 PUSH2 0x2729 JUMP JUMPDEST PUSH2 0xEE1 JUMP JUMPDEST PUSH2 0x2D5 PUSH2 0x414 CALLDATASIZE PUSH1 0x4 PUSH2 0x2784 JUMP JUMPDEST PUSH2 0xF79 JUMP JUMPDEST CALLVALUE DUP1 ISZERO PUSH2 0x424 JUMPI PUSH0 DUP1 REVERT JUMPDEST POP PUSH2 0x317 PUSH2 0x433 CALLDATASIZE PUSH1 0x4 PUSH2 0x24EC JUMP JUMPDEST PUSH1 0x8 PUSH1 0x20 SWAP1 DUP2 MSTORE PUSH0 SWAP3 DUP4 MSTORE PUSH1 0x40 DUP1 DUP5 KECCAK256 SWAP1 SWAP2 MSTORE SWAP1 DUP3 MSTORE SWAP1 KECCAK256 SLOAD DUP2 JUMP JUMPDEST CALLVALUE DUP1 ISZERO PUSH2 0x45A JUMPI PUSH0 DUP1 REVERT JUMPDEST POP PUSH2 0x295 PUSH2 0x469 CALLDATASIZE PUSH1 0x4 PUSH2 0x2853 JUMP JUMPDEST PUSH2 0x1020 JUMP JUMPDEST CALLVALUE DUP1 ISZERO PUSH2 0x479 JUMPI PUSH0 DUP1 REVERT JUMPDEST POP PUSH2 0x482 PUSH2 0x106A JUMP JUMPDEST PUSH1 0x40 MLOAD PUSH2 0x2E1 SWAP2 SWAP1 PUSH2 0x28FD JUMP JUMPDEST CALLVALUE DUP1 ISZERO PUSH2 0x49A JUMPI PUSH0 DUP1 REVERT JUMPDEST POP PUSH2 0x317 PUSH1 0x5 SLOAD DUP2 JUMP JUMPDEST CALLVALUE DUP1 ISZERO PUSH2 0x4AF JUMPI PUSH0 DUP1 REVERT JUMPDEST POP PUSH2 0x295 PUSH2 0x4BE CALLDATASIZE PUSH1 0x4 PUSH2 0x290F JUMP JUMPDEST PUSH2 0x1157 JUMP JUMPDEST CALLVALUE DUP1 ISZERO PUSH2 0x4CE JUMPI PUSH0 DUP1 REVERT JUMPDEST POP PUSH2 0x295 PUSH2 0x4DD CALLDATASIZE PUSH1 0x4 PUSH2 0x295B JUMP JUMPDEST PUSH2 0x1176 JUMP JUMPDEST CALLVALUE DUP1 ISZERO PUSH2 0x4ED JUMPI PUSH0 DUP1 REVERT JUMPDEST POP PUSH2 0x317 PUSH2 0x4FC CALLDATASIZE PUSH1 0x4 PUSH2 0x2A44 JUMP JUMPDEST PUSH2 0x1294 JUMP JUMPDEST CALLVALUE DUP1 ISZERO PUSH2 0x50C JUMPI PUSH0 DUP1 REVERT JUMPDEST POP PUSH2 0x520 PUSH2 0x51B CALLDATASIZE PUSH1 0x4 PUSH2 0x24EC JUMP JUMPDEST PUSH2 0x132A JUMP JUMPDEST PUSH1 0x40 MLOAD PUSH2 0x2E1 SWAP3 SWAP2 SWAP1 PUSH2 0x2AAF JUMP JUMPDEST CALLVALUE DUP1 ISZERO PUSH2 0x539 JUMPI PUSH0 DUP1 REVERT JUMPDEST POP PUSH2 0x295 PUSH2 0x548 CALLDATASIZE PUSH1 0x4 PUSH2 0x2729 JUMP JUMPDEST PUSH2 0x1420 JUMP JUMPDEST CALLVALUE DUP1 ISZERO PUSH2 0x558 JUMPI PUSH0 DUP1 REVERT JUMPDEST POP PUSH2 0x317 PUSH2 0x567 CALLDATASIZE PUSH1 0x4 PUSH2 0x2AD8 JUMP JUMPDEST PUSH2 0x14B3 JUMP JUMPDEST CALLVALUE DUP1 ISZERO PUSH2 0x577 JUMPI PUSH0 DUP1 REVERT JUMPDEST POP PUSH2 0x295 PUSH2 0x586 CALLDATASIZE PUSH1 0x4 PUSH2 0x2B90 JUMP JUMPDEST PUSH2 0x14DF JUMP JUMPDEST CALLVALUE DUP1 ISZERO PUSH2 0x596 JUMPI PUSH0 DUP1 REVERT JUMPDEST POP PUSH2 0x295 PUSH2 0x5A5 CALLDATASIZE PUSH1 0x4 PUSH2 0x2621 JUMP JUMPDEST PUSH2 0x160C JUMP JUMPDEST CALLVALUE DUP1 ISZERO PUSH2 0x5B5 JUMPI PUSH0 DUP1 REVERT JUMPDEST POP PUSH2 0x295 PUSH2 0x5C4 CALLDATASIZE PUSH1 0x4 PUSH2 0x2BC7 JUMP JUMPDEST PUSH2 0x1671 JUMP JUMPDEST CALLVALUE DUP1 ISZERO PUSH2 0x5D4 JUMPI PUSH0 DUP1 REVERT JUMPDEST POP PUSH1 0x4 SLOAD PUSH2 0x317 JUMP JUMPDEST CALLVALUE DUP1 ISZERO PUSH2 0x5E8 JUMPI PUSH0 DUP1 REVERT JUMPDEST POP PUSH2 0x390 PUSH2 0x5F7 CALLDATASIZE PUSH1 0x4 PUSH2 0x2AD8 JUMP JUMPDEST PUSH2 0x185D JUMP JUMPDEST CALLVALUE DUP1 ISZERO PUSH2 0x607 JUMPI PUSH0 DUP1 REVERT JUMPDEST POP PUSH2 0x295 PUSH2 0x616 CALLDATASIZE PUSH1 0x4 PUSH2 0x2621 JUMP JUMPDEST PUSH2 0x1934 JUMP JUMPDEST CALLVALUE DUP1 ISZERO PUSH2 0x626 JUMPI PUSH0 DUP1 REVERT JUMPDEST POP PUSH2 0x317 PUSH2 0x199D JUMP JUMPDEST CALLVALUE DUP1 ISZERO PUSH2 0x63A JUMPI PUSH0 DUP1 REVERT JUMPDEST POP PUSH2 0x295 PUSH2 0x649 CALLDATASIZE PUSH1 0x4 PUSH2 0x2C0F JUMP JUMPDEST PUSH2 0x19F3 JUMP JUMPDEST CALLVALUE DUP1 ISZERO PUSH2 0x659 JUMPI PUSH0 DUP1 REVERT JUMPDEST POP PUSH2 0x390 PUSH1 0x40 MLOAD DUP1 PUSH1 0x40 ADD PUSH1 0x40 MSTORE DUP1 PUSH1 0x5 DUP2 MSTORE PUSH1 0x20 ADD PUSH5 0x312E332E3 PUSH1 0xDC SHL DUP2 MSTORE POP DUP2 JUMP JUMPDEST PUSH2 0x686 PUSH2 0x1B64 JUMP JUMPDEST PUSH1 0x1 PUSH1 0x1 PUSH1 0xA0 SHL SUB DUP3 AND ISZERO DUP1 ISZERO SWAP1 PUSH2 0x6A8 JUMPI POP PUSH1 0x1 PUSH1 0x1 PUSH1 0xA0 SHL SUB DUP3 AND PUSH1 0x1 EQ ISZERO JUMPDEST DUP1 ISZERO PUSH2 0x6BD JUMPI POP PUSH1 0x1 PUSH1 0x1 PUSH1 0xA0 SHL SUB DUP3 AND ADDRESS EQ ISZERO JUMPDEST PUSH2 0x6E2 JUMPI PUSH1 0x40 MLOAD PUSH3 0x461BCD PUSH1 0xE5 SHL DUP2 MSTORE PUSH1 0x4 ADD PUSH2 0x6D9 SWAP1 PUSH2 0x2C4D JUMP JUMPDEST PUSH1 0x40 MLOAD DUP1 SWAP2 SUB SWAP1 REVERT JUMPDEST PUSH1 0x1 PUSH1 0x1 PUSH1 0xA0 SHL SUB DUP3 DUP2 AND PUSH0 SWAP1 DUP2 MSTORE PUSH1 0x2 PUSH1 0x20 MSTORE PUSH1 0x40 SWAP1 KECCAK256 SLOAD AND ISZERO PUSH2 0x719 JUMPI PUSH1 0x40 MLOAD PUSH3 0x461BCD PUSH1 0xE5 SHL DUP2 MSTORE PUSH1 0x4 ADD PUSH2 0x6D9 SWAP1 PUSH2 0x2C6C JUMP JUMPDEST PUSH1 0x2 PUSH1 0x20 MSTORE PUSH32 0xE90B7BCEB6E7DF5418FB78D8EE546E97C83A08BBCCC01A0644D599CCD2A7C2E0 DUP1 SLOAD PUSH1 0x1 PUSH1 0x1 PUSH1 0xA0 SHL SUB DUP5 DUP2 AND PUSH0 DUP2 DUP2 MSTORE PUSH1 0x40 DUP2 KECCAK256 DUP1 SLOAD SWAP4 SWAP1 SWAP5 AND PUSH1 0x1 PUSH1 0x1 PUSH1 0xA0 SHL SUB NOT SWAP4 DUP5 AND OR SWAP1 SWAP4 SSTORE PUSH1 0x1 DUP4 MSTORE DUP4 SLOAD SWAP1 SWAP2 AND OR SWAP1 SWAP2 SSTORE PUSH1 0x3 DUP1 SLOAD SWAP2 PUSH2 0x785 DUP4 PUSH2 0x2C9F JUMP JUMPDEST SWAP1 SWAP2 SSTORE POP POP PUSH1 0x40 MLOAD PUSH1 0x1 PUSH1 0x1 PUSH1 0xA0 SHL SUB DUP4 AND DUP2 MSTORE PUSH32 0x9465FA0C962CC76958E6373A993326400C1C94F8BE2FE3A952ADFA7F60B2EA26 SWAP1 PUSH1 0x20 ADD PUSH1 0x40 MLOAD DUP1 SWAP2 SUB SWAP1 LOG1 DUP1 PUSH1 0x4 SLOAD EQ PUSH2 0x7D8 JUMPI PUSH2 0x7D8 DUP2 PUSH2 0xEE1 JUMP JUMPDEST POP POP JUMP JUMPDEST PUSH2 0x7E7 DUP2 PUSH1 0x41 PUSH2 0x1B9D JUMP JUMPDEST DUP3 MLOAD LT ISZERO PUSH2 0x81F JUMPI PUSH1 0x40 MLOAD PUSH3 0x461BCD PUSH1 0xE5 SHL DUP2 MSTORE PUSH1 0x20 PUSH1 0x4 DUP3 ADD MSTORE PUSH1 0x5 PUSH1 0x24 DUP3 ADD MSTORE PUSH5 0x475330323 PUSH1 0xDC SHL PUSH1 0x44 DUP3 ADD MSTORE PUSH1 0x64 ADD PUSH2 0x6D9 JUMP JUMPDEST PUSH0 DUP1 DUP1 PUSH0 DUP1 PUSH0 JUMPDEST DUP7 DUP2 LT ISZERO PUSH2 0xC24 JUMPI PUSH1 0x41 DUP2 DUP2 MUL DUP10 ADD PUSH1 0x20 DUP2 ADD MLOAD PUSH1 0x40 DUP3 ADD MLOAD SWAP2 SWAP1 SWAP3 ADD MLOAD PUSH1 0xFF AND SWAP6 POP SWAP1 SWAP4 POP SWAP2 POP PUSH0 DUP5 SWAP1 SUB PUSH2 0x9F4 JUMPI SWAP2 SWAP4 POP DUP4 SWAP2 PUSH2 0x866 DUP8 PUSH1 0x41 PUSH2 0x1B9D JUMP JUMPDEST DUP3 LT ISZERO PUSH2 0x89D JUMPI PUSH1 0x40 MLOAD PUSH3 0x461BCD PUSH1 0xE5 SHL DUP2 MSTORE PUSH1 0x20 PUSH1 0x4 DUP3 ADD MSTORE PUSH1 0x5 PUSH1 0x24 DUP3 ADD MSTORE PUSH5 0x4753303231 PUSH1 0xD8 SHL PUSH1 0x44 DUP3 ADD MSTORE PUSH1 0x64 ADD PUSH2 0x6D9 JUMP JUMPDEST DUP8 MLOAD PUSH2 0x8AA DUP4 PUSH1 0x20 PUSH2 0x1BD4 JUMP JUMPDEST GT ISZERO PUSH2 0x8E0 JUMPI PUSH1 0x40 MLOAD PUSH3 0x461BCD PUSH1 0xE5 SHL DUP2 MSTORE PUSH1 0x20 PUSH1 0x4 DUP3 ADD MSTORE PUSH1 0x5 PUSH1 0x24 DUP3 ADD MSTORE PUSH5 0x23A9981919 PUSH1 0xD9 SHL PUSH1 0x44 DUP3 ADD MSTORE PUSH1 0x64 ADD PUSH2 0x6D9 JUMP JUMPDEST PUSH1 0x20 DUP3 DUP10 ADD DUP2 ADD MLOAD DUP10 MLOAD SWAP1 SWAP2 PUSH2 0x903 SWAP1 DUP4 SWAP1 PUSH2 0x8FD SWAP1 DUP8 SWAP1 PUSH2 0x1BD4 JUMP JUMPDEST SWAP1 PUSH2 0x1BD4 JUMP JUMPDEST GT ISZERO PUSH2 0x939 JUMPI PUSH1 0x40 MLOAD PUSH3 0x461BCD PUSH1 0xE5 SHL DUP2 MSTORE PUSH1 0x20 PUSH1 0x4 DUP3 ADD MSTORE PUSH1 0x5 PUSH1 0x24 DUP3 ADD MSTORE PUSH5 0x4753303233 PUSH1 0xD8 SHL PUSH1 0x44 DUP3 ADD MSTORE PUSH1 0x64 ADD PUSH2 0x6D9 JUMP JUMPDEST PUSH1 0x40 MLOAD PUSH4 0x20C13B0B PUSH1 0xE0 SHL DUP1 DUP3 MSTORE DUP11 DUP6 ADD PUSH1 0x20 ADD SWAP2 PUSH1 0x1 PUSH1 0x1 PUSH1 0xA0 SHL SUB DUP10 AND SWAP1 PUSH4 0x20C13B0B SWAP1 PUSH2 0x96F SWAP1 DUP16 SWAP1 DUP7 SWAP1 PUSH1 0x4 ADD PUSH2 0x2CB7 JUMP JUMPDEST PUSH1 0x20 PUSH1 0x40 MLOAD DUP1 DUP4 SUB DUP2 DUP7 GAS STATICCALL ISZERO DUP1 ISZERO PUSH2 0x98A JUMPI RETURNDATASIZE PUSH0 DUP1 RETURNDATACOPY RETURNDATASIZE PUSH0 REVERT JUMPDEST POP POP POP POP PUSH1 0x40 MLOAD RETURNDATASIZE PUSH1 0x1F NOT PUSH1 0x1F DUP3 ADD AND DUP3 ADD DUP1 PUSH1 0x40 MSTORE POP DUP2 ADD SWAP1 PUSH2 0x9AE SWAP2 SWAP1 PUSH2 0x2CDB JUMP JUMPDEST PUSH1 0x1 PUSH1 0x1 PUSH1 0xE0 SHL SUB NOT AND EQ PUSH2 0x9ED JUMPI PUSH1 0x40 MLOAD PUSH3 0x461BCD PUSH1 0xE5 SHL DUP2 MSTORE PUSH1 0x20 PUSH1 0x4 DUP3 ADD MSTORE PUSH1 0x5 PUSH1 0x24 DUP3 ADD MSTORE PUSH5 0x11D4CC0C8D PUSH1 0xDA SHL PUSH1 0x44 DUP3 ADD MSTORE PUSH1 0x64 ADD PUSH2 0x6D9 JUMP JUMPDEST POP POP PUSH2 0xB94 JUMP JUMPDEST DUP4 PUSH1 0xFF AND PUSH1 0x1 SUB PUSH2 0xA75 JUMPI SWAP2 SWAP4 POP DUP4 SWAP2 CALLER PUSH1 0x1 PUSH1 0x1 PUSH1 0xA0 SHL SUB DUP5 AND EQ DUP1 PUSH2 0xA3C JUMPI POP PUSH1 0x1 PUSH1 0x1 PUSH1 0xA0 SHL SUB DUP6 AND PUSH0 SWAP1 DUP2 MSTORE PUSH1 0x8 PUSH1 0x20 SWAP1 DUP2 MSTORE PUSH1 0x40 DUP1 DUP4 KECCAK256 DUP14 DUP5 MSTORE SWAP1 SWAP2 MSTORE SWAP1 KECCAK256 SLOAD ISZERO ISZERO JUMPDEST PUSH2 0xA70 JUMPI PUSH1 0x40 MLOAD PUSH3 0x461BCD PUSH1 0xE5 SHL DUP2 MSTORE PUSH1 0x20 PUSH1 0x4 DUP3 ADD MSTORE PUSH1 0x5 PUSH1 0x24 DUP3 ADD MSTORE PUSH5 0x4753303235 PUSH1 0xD8 SHL PUSH1 0x44 DUP3 ADD MSTORE PUSH1 0x64 ADD PUSH2 0x6D9 JUMP JUMPDEST PUSH2 0xB94 JUMP JUMPDEST PUSH1 0x1E DUP5 PUSH1 0xFF AND GT ISZERO PUSH2 0xB37 JUMPI PUSH1 0x40 MLOAD PUSH32 0x19457468657265756D205369676E6564204D6573736167653A0A333200000000 PUSH1 0x20 DUP3 ADD MSTORE PUSH1 0x3C DUP2 ADD DUP12 SWAP1 MSTORE PUSH1 0x1 SWAP1 PUSH1 0x5C ADD PUSH1 0x40 MLOAD PUSH1 0x20 DUP2 DUP4 SUB SUB DUP2 MSTORE SWAP1 PUSH1 0x40 MSTORE DUP1 MLOAD SWAP1 PUSH1 0x20 ADD KECCAK256 PUSH1 0x4 DUP7 PUSH2 0xADA SWAP2 SWAP1 PUSH2 0x2D02 JUMP JUMPDEST PUSH1 0x40 DUP1 MLOAD PUSH0 DUP2 MSTORE PUSH1 0x20 DUP2 ADD DUP1 DUP4 MSTORE SWAP4 SWAP1 SWAP4 MSTORE PUSH1 0xFF SWAP1 SWAP2 AND SWAP1 DUP3 ADD MSTORE PUSH1 0x60 DUP2 ADD DUP6 SWAP1 MSTORE PUSH1 0x80 DUP2 ADD DUP5 SWAP1 MSTORE PUSH1 0xA0 ADD PUSH1 0x20 PUSH1 0x40 MLOAD PUSH1 0x20 DUP2 SUB SWAP1 DUP1 DUP5 SUB SWAP1 DUP6 GAS STATICCALL ISZERO DUP1 ISZERO PUSH2 0xB26 JUMPI RETURNDATASIZE PUSH0 DUP1 RETURNDATACOPY RETURNDATASIZE PUSH0 REVERT JUMPDEST POP POP POP PUSH1 0x20 PUSH1 0x40 MLOAD SUB MLOAD SWAP5 POP PUSH2 0xB94 JUMP JUMPDEST PUSH1 0x40 DUP1 MLOAD PUSH0 DUP2 MSTORE PUSH1 0x20 DUP2 ADD DUP1 DUP4 MSTORE DUP13 SWAP1 MSTORE PUSH1 0xFF DUP7 AND SWAP2 DUP2 ADD SWAP2 SWAP1 SWAP2 MSTORE PUSH1 0x60 DUP2 ADD DUP5 SWAP1 MSTORE PUSH1 0x80 DUP2 ADD DUP4 SWAP1 MSTORE PUSH1 0x1 SWAP1 PUSH1 0xA0 ADD PUSH1 0x20 PUSH1 0x40 MLOAD PUSH1 0x20 DUP2 SUB SWAP1 DUP1 DUP5 SUB SWAP1 DUP6 GAS STATICCALL ISZERO DUP1 ISZERO PUSH2 0xB87 JUMPI RETURNDATASIZE PUSH0 DUP1 RETURNDATACOPY RETURNDATASIZE PUSH0 REVERT JUMPDEST POP POP POP PUSH1 0x20 PUSH1 0x40 MLOAD SUB MLOAD SWAP5 POP JUMPDEST DUP6 PUSH1 0x1 PUSH1 0x1 PUSH1 0xA0 SHL SUB AND DUP6 PUSH1 0x1 PUSH1 0x1 PUSH1 0xA0 SHL SUB AND GT DUP1 ISZERO PUSH2 0xBCD JUMPI POP PUSH1 0x1 PUSH1 0x1 PUSH1 0xA0 SHL SUB DUP6 DUP2 AND PUSH0 SWAP1 DUP2 MSTORE PUSH1 0x2 PUSH1 0x20 MSTORE PUSH1 0x40 SWAP1 KECCAK256 SLOAD AND ISZERO ISZERO JUMPDEST DUP1 ISZERO PUSH2 0xBE3 JUMPI POP PUSH1 0x1 PUSH1 0x1 PUSH1 0xA0 SHL SUB DUP6 AND PUSH1 0x1 EQ ISZERO JUMPDEST PUSH2 0xC17 JUMPI PUSH1 0x40 MLOAD PUSH3 0x461BCD PUSH1 0xE5 SHL DUP2 MSTORE PUSH1 0x20 PUSH1 0x4 DUP3 ADD MSTORE PUSH1 0x5 PUSH1 0x24 DUP3 ADD MSTORE PUSH5 0x23A998191B PUSH1 0xD9 SHL PUSH1 0x44 DUP3 ADD MSTORE PUSH1 0x64 ADD PUSH2 0x6D9 JUMP JUMPDEST SWAP4 SWAP5 POP DUP5 SWAP4 PUSH1 0x1 ADD PUSH2 0x826 JUMP JUMPDEST POP POP POP POP POP POP POP POP POP POP JUMP JUMPDEST PUSH0 PUSH1 0x1 PUSH1 0x1 PUSH1 0x1 PUSH1 0xA0 SHL SUB DUP4 AND EQ DUP1 ISZERO SWAP1 PUSH2 0xC63 JUMPI POP PUSH1 0x1 PUSH1 0x1 PUSH1 0xA0 SHL SUB DUP3 DUP2 AND PUSH0 SWAP1 DUP2 MSTORE PUSH1 0x1 PUSH1 0x20 MSTORE PUSH1 0x40 SWAP1 KECCAK256 SLOAD AND ISZERO ISZERO JUMPDEST SWAP3 SWAP2 POP POP JUMP JUMPDEST PUSH0 PUSH1 0x1 PUSH1 0x1 PUSH1 0xA0 SHL SUB DUP3 AND PUSH1 0x1 EQ DUP1 ISZERO SWAP1 PUSH2 0xC63 JUMPI POP POP PUSH1 0x1 PUSH1 0x1 PUSH1 0xA0 SHL SUB SWAP1 DUP2 AND PUSH0 SWAP1 DUP2 MSTORE PUSH1 0x2 PUSH1 0x20 MSTORE PUSH1 0x40 SWAP1 KECCAK256 SLOAD AND ISZERO ISZERO SWAP1 JUMP JUMPDEST PUSH0 PUSH32 0xB648D3644F584ED1C2232D53C46D87E693586486AD0D1175F8656013110B714E CALLER DUP7 DUP7 DUP7 DUP7 PUSH1 0x40 MLOAD PUSH2 0xCD7 SWAP6 SWAP5 SWAP4 SWAP3 SWAP2 SWAP1 PUSH2 0x2D4F JUMP JUMPDEST PUSH1 0x40 MLOAD DUP1 SWAP2 SUB SWAP1 LOG1 PUSH2 0xCEB DUP6 DUP6 DUP6 DUP6 PUSH2 0x1BEE JUMP JUMPDEST SWAP6 SWAP5 POP POP POP POP POP JUMP JUMPDEST PUSH0 PUSH1 0x60 PUSH2 0xD03 DUP7 DUP7 DUP7 DUP7 PUSH2 0xC9F JUMP JUMPDEST SWAP2 POP PUSH1 0x40 MLOAD PUSH1 0x20 RETURNDATASIZE ADD DUP2 ADD PUSH1 0x40 MSTORE RETURNDATASIZE DUP2 MSTORE RETURNDATASIZE PUSH0 PUSH1 0x20 DUP4 ADD RETURNDATACOPY DUP1 SWAP2 POP POP SWAP5 POP SWAP5 SWAP3 POP POP POP JUMP JUMPDEST PUSH1 0x60 PUSH0 PUSH2 0xD36 DUP4 PUSH1 0x20 PUSH2 0x2D9A JUMP JUMPDEST PUSH1 0x1 PUSH1 0x1 PUSH1 0x40 SHL SUB DUP2 GT ISZERO PUSH2 0xD4D JUMPI PUSH2 0xD4D PUSH2 0x2516 JUMP JUMPDEST PUSH1 0x40 MLOAD SWAP1 DUP1 DUP3 MSTORE DUP1 PUSH1 0x1F ADD PUSH1 0x1F NOT AND PUSH1 0x20 ADD DUP3 ADD PUSH1 0x40 MSTORE DUP1 ISZERO PUSH2 0xD77 JUMPI PUSH1 0x20 DUP3 ADD DUP2 DUP1 CALLDATASIZE DUP4 CALLDATACOPY ADD SWAP1 POP JUMPDEST POP SWAP1 POP PUSH0 JUMPDEST DUP4 DUP2 LT ISZERO PUSH2 0xD99 JUMPI DUP5 DUP2 ADD SLOAD PUSH1 0x20 DUP1 DUP4 MUL DUP5 ADD ADD MSTORE PUSH1 0x1 ADD PUSH2 0xD7C JUMP JUMPDEST POP SWAP4 SWAP3 POP POP POP JUMP JUMPDEST PUSH2 0xDA9 PUSH2 0x1B64 JUMP JUMPDEST PUSH1 0x1 PUSH1 0x1 PUSH1 0xA0 SHL SUB DUP2 AND ISZERO DUP1 ISZERO SWAP1 PUSH2 0xDCB JUMPI POP PUSH1 0x1 PUSH1 0x1 PUSH1 0xA0 SHL SUB DUP2 AND PUSH1 0x1 EQ ISZERO JUMPDEST PUSH2 0xDFF JUMPI PUSH1 0x40 MLOAD PUSH3 0x461BCD PUSH1 0xE5 SHL DUP2 MSTORE PUSH1 0x20 PUSH1 0x4 DUP3 ADD MSTORE PUSH1 0x5 PUSH1 0x24 DUP3 ADD MSTORE PUSH5 0x4753313031 PUSH1 0xD8 SHL PUSH1 0x44 DUP3 ADD MSTORE PUSH1 0x64 ADD PUSH2 0x6D9 JUMP JUMPDEST PUSH1 0x1 PUSH1 0x1 PUSH1 0xA0 SHL SUB DUP2 DUP2 AND PUSH0 SWAP1 DUP2 MSTORE PUSH1 0x1 PUSH1 0x20 MSTORE PUSH1 0x40 SWAP1 KECCAK256 SLOAD AND ISZERO PUSH2 0xE4E JUMPI PUSH1 0x40 MLOAD PUSH3 0x461BCD PUSH1 0xE5 SHL DUP2 MSTORE PUSH1 0x20 PUSH1 0x4 DUP3 ADD MSTORE PUSH1 0x5 PUSH1 0x24 DUP3 ADD MSTORE PUSH5 0x23A9989819 PUSH1 0xD9 SHL PUSH1 0x44 DUP3 ADD MSTORE PUSH1 0x64 ADD PUSH2 0x6D9 JUMP JUMPDEST PUSH1 0x1 PUSH1 0x20 DUP2 DUP2 MSTORE PUSH32 0xCC69885FDA6BCC1A4ACE058B4A62BF5E179EA78FD58A1CCD71C22CC9B688792F DUP1 SLOAD PUSH1 0x1 PUSH1 0x1 PUSH1 0xA0 SHL SUB DUP6 DUP2 AND PUSH0 DUP2 DUP2 MSTORE PUSH1 0x40 DUP1 DUP3 KECCAK256 DUP1 SLOAD SWAP5 SWAP1 SWAP6 AND PUSH1 0x1 PUSH1 0x1 PUSH1 0xA0 SHL SUB NOT SWAP5 DUP6 AND OR SWAP1 SWAP5 SSTORE SWAP6 SWAP1 SWAP6 MSTORE DUP3 SLOAD AND DUP5 OR SWAP1 SWAP2 SSTORE MLOAD SWAP2 DUP3 MSTORE PUSH32 0xECDF3A3EFFEA5783A3C4C2140E677577666428D44ED9D474A0B3A4C9943F8440 SWAP2 ADD JUMPDEST PUSH1 0x40 MLOAD DUP1 SWAP2 SUB SWAP1 LOG1 POP JUMP JUMPDEST PUSH2 0xEE9 PUSH2 0x1B64 JUMP JUMPDEST PUSH1 0x3 SLOAD DUP2 GT ISZERO PUSH2 0xF0B JUMPI PUSH1 0x40 MLOAD PUSH3 0x461BCD PUSH1 0xE5 SHL DUP2 MSTORE PUSH1 0x4 ADD PUSH2 0x6D9 SWAP1 PUSH2 0x2DB1 JUMP JUMPDEST PUSH1 0x1 DUP2 LT ISZERO PUSH2 0xF44 JUMPI PUSH1 0x40 MLOAD PUSH3 0x461BCD PUSH1 0xE5 SHL DUP2 MSTORE PUSH1 0x20 PUSH1 0x4 DUP3 ADD MSTORE PUSH1 0x5 PUSH1 0x24 DUP3 ADD MSTORE PUSH5 0x23A9991819 PUSH1 0xD9 SHL PUSH1 0x44 DUP3 ADD MSTORE PUSH1 0x64 ADD PUSH2 0x6D9 JUMP JUMPDEST PUSH1 0x4 DUP2 SWAP1 SSTORE PUSH1 0x40 MLOAD DUP2 DUP2 MSTORE PUSH32 0x610F7FF2B304AE8903C3DE74C60C6AB1F7D6226B3F52C5161905BB5AD4039C93 SWAP1 PUSH1 0x20 ADD PUSH2 0xED6 JUMP JUMPDEST PUSH1 0x5 SLOAD PUSH1 0x4 SLOAD PUSH1 0x40 DUP1 MLOAD PUSH1 0x20 DUP2 ADD SWAP4 SWAP1 SWAP4 MSTORE CALLER SWAP1 DUP4 ADD MSTORE PUSH1 0x60 DUP3 DUP2 ADD SWAP2 SWAP1 SWAP2 MSTORE PUSH0 SWAP2 PUSH1 0x80 ADD PUSH1 0x40 MLOAD PUSH1 0x20 DUP2 DUP4 SUB SUB DUP2 MSTORE SWAP1 PUSH1 0x40 MSTORE SWAP1 POP PUSH32 0x66753CD2356569EE081232E3BE8909B950E0A76C1F8460C3A5E3C2BE32B11BED DUP14 DUP14 DUP14 DUP14 DUP14 DUP14 DUP14 DUP14 DUP14 DUP14 DUP14 DUP13 PUSH1 0x40 MLOAD PUSH2 0xFF4 SWAP13 SWAP12 SWAP11 SWAP10 SWAP9 SWAP8 SWAP7 SWAP6 SWAP5 SWAP4 SWAP3 SWAP2 SWAP1 PUSH2 0x2DF8 JUMP JUMPDEST PUSH1 0x40 MLOAD DUP1 SWAP2 SUB SWAP1 LOG1 PUSH2 0x100F DUP14 DUP14 DUP14 DUP14 DUP14 DUP14 DUP14 DUP14 DUP14 DUP14 DUP14 PUSH2 0x1CC1 JUMP JUMPDEST SWAP14 SWAP13 POP POP POP POP POP POP POP POP POP POP POP POP POP JUMP JUMPDEST PUSH1 0x4 SLOAD DUP1 PUSH2 0x1058 JUMPI PUSH1 0x40 MLOAD PUSH3 0x461BCD PUSH1 0xE5 SHL DUP2 MSTORE PUSH1 0x20 PUSH1 0x4 DUP3 ADD MSTORE PUSH1 0x5 PUSH1 0x24 DUP3 ADD MSTORE PUSH5 0x4753303031 PUSH1 0xD8 SHL PUSH1 0x44 DUP3 ADD MSTORE PUSH1 0x64 ADD PUSH2 0x6D9 JUMP JUMPDEST PUSH2 0x1064 DUP5 DUP5 DUP5 DUP5 PUSH2 0x7DC JUMP JUMPDEST POP POP POP POP JUMP JUMPDEST PUSH1 0x60 PUSH0 PUSH1 0x3 SLOAD PUSH1 0x1 PUSH1 0x1 PUSH1 0x40 SHL SUB DUP2 GT ISZERO PUSH2 0x1087 JUMPI PUSH2 0x1087 PUSH2 0x2516 JUMP JUMPDEST PUSH1 0x40 MLOAD SWAP1 DUP1 DUP3 MSTORE DUP1 PUSH1 0x20 MUL PUSH1 0x20 ADD DUP3 ADD PUSH1 0x40 MSTORE DUP1 ISZERO PUSH2 0x10B0 JUMPI DUP2 PUSH1 0x20 ADD PUSH1 0x20 DUP3 MUL DUP1 CALLDATASIZE DUP4 CALLDATACOPY ADD SWAP1 POP JUMPDEST POP PUSH1 0x1 PUSH0 SWAP1 DUP2 MSTORE PUSH1 0x2 PUSH1 0x20 MSTORE PUSH32 0xE90B7BCEB6E7DF5418FB78D8EE546E97C83A08BBCCC01A0644D599CCD2A7C2E0 SLOAD SWAP2 SWAP3 POP SWAP1 PUSH1 0x1 PUSH1 0x1 PUSH1 0xA0 SHL SUB AND JUMPDEST PUSH1 0x1 PUSH1 0x1 PUSH1 0xA0 SHL SUB DUP2 AND PUSH1 0x1 EQ PUSH2 0x114F JUMPI DUP1 DUP4 DUP4 DUP2 MLOAD DUP2 LT PUSH2 0x1110 JUMPI PUSH2 0x1110 PUSH2 0x2E8E JUMP JUMPDEST PUSH1 0x1 PUSH1 0x1 PUSH1 0xA0 SHL SUB SWAP3 DUP4 AND PUSH1 0x20 SWAP2 DUP3 MUL SWAP3 SWAP1 SWAP3 ADD DUP2 ADD SWAP2 SWAP1 SWAP2 MSTORE SWAP2 DUP2 AND PUSH0 SWAP1 DUP2 MSTORE PUSH1 0x2 SWAP1 SWAP3 MSTORE PUSH1 0x40 SWAP1 SWAP2 KECCAK256 SLOAD AND DUP2 PUSH2 0x1147 DUP2 PUSH2 0x2C9F JUMP JUMPDEST SWAP3 POP POP PUSH2 0x10EC JUMP JUMPDEST POP SWAP1 SWAP3 SWAP2 POP POP JUMP JUMPDEST PUSH0 DUP1 DUP3 MLOAD PUSH1 0x20 DUP5 ADD DUP6 GAS DELEGATECALL DUP1 PUSH0 MSTORE POP RETURNDATASIZE PUSH1 0x20 MSTORE RETURNDATASIZE PUSH0 PUSH1 0x40 RETURNDATACOPY PUSH1 0x40 RETURNDATASIZE ADD PUSH0 REVERT JUMPDEST PUSH2 0x11B3 DUP11 DUP11 DUP1 DUP1 PUSH1 0x20 MUL PUSH1 0x20 ADD PUSH1 0x40 MLOAD SWAP1 DUP2 ADD PUSH1 0x40 MSTORE DUP1 SWAP4 SWAP3 SWAP2 SWAP1 DUP2 DUP2 MSTORE PUSH1 0x20 ADD DUP4 DUP4 PUSH1 0x20 MUL DUP1 DUP3 DUP5 CALLDATACOPY PUSH0 SWAP3 ADD SWAP2 SWAP1 SWAP2 MSTORE POP DUP13 SWAP3 POP PUSH2 0x1FF8 SWAP2 POP POP JUMP JUMPDEST PUSH1 0x1 PUSH1 0x1 PUSH1 0xA0 SHL SUB DUP5 AND ISZERO PUSH2 0x11EA JUMPI PUSH2 0x11EA DUP5 PUSH32 0x6C9A6C4A39284E37ED1CF53D337577D14212A4870FB976A4366C693B939918D5 SSTORE JUMP JUMPDEST PUSH2 0x1229 DUP8 DUP8 DUP8 DUP1 DUP1 PUSH1 0x1F ADD PUSH1 0x20 DUP1 SWAP2 DIV MUL PUSH1 0x20 ADD PUSH1 0x40 MLOAD SWAP1 DUP2 ADD PUSH1 0x40 MSTORE DUP1 SWAP4 SWAP3 SWAP2 SWAP1 DUP2 DUP2 MSTORE PUSH1 0x20 ADD DUP4 DUP4 DUP1 DUP3 DUP5 CALLDATACOPY PUSH0 SWAP3 ADD SWAP2 SWAP1 SWAP2 MSTORE POP PUSH2 0x21CE SWAP3 POP POP POP JUMP JUMPDEST DUP2 ISZERO PUSH2 0x123F JUMPI PUSH2 0x123D DUP3 PUSH0 PUSH1 0x1 DUP7 DUP6 PUSH2 0x22C5 JUMP JUMPDEST POP JUMPDEST CALLER PUSH1 0x1 PUSH1 0x1 PUSH1 0xA0 SHL SUB AND PUSH32 0x141DF868A6331AF528E38C83B7AA03EDC19BE66E37AE67F9285BF4F8E3C6A1A8 DUP12 DUP12 DUP12 DUP12 DUP10 PUSH1 0x40 MLOAD PUSH2 0x1280 SWAP6 SWAP5 SWAP4 SWAP3 SWAP2 SWAP1 PUSH2 0x2EA2 JUMP JUMPDEST PUSH1 0x40 MLOAD DUP1 SWAP2 SUB SWAP1 LOG2 POP POP POP POP POP POP POP POP POP POP JUMP JUMPDEST PUSH0 DUP1 GAS SWAP1 POP PUSH2 0x12DB DUP8 DUP8 DUP8 DUP8 DUP1 DUP1 PUSH1 0x1F ADD PUSH1 0x20 DUP1 SWAP2 DIV MUL PUSH1 0x20 ADD PUSH1 0x40 MLOAD SWAP1 DUP2 ADD PUSH1 0x40 MSTORE DUP1 SWAP4 SWAP3 SWAP2 SWAP1 DUP2 DUP2 MSTORE PUSH1 0x20 ADD DUP4 DUP4 DUP1 DUP3 DUP5 CALLDATACOPY PUSH0 SWAP3 ADD SWAP2 SWAP1 SWAP2 MSTORE POP DUP10 SWAP3 POP POP POP GAS PUSH2 0x23C9 JUMP JUMPDEST PUSH2 0x12E3 JUMPI PUSH0 DUP1 REVERT JUMPDEST PUSH0 GAS PUSH2 0x12EF SWAP1 DUP4 PUSH2 0x2F0D JUMP JUMPDEST SWAP1 POP DUP1 PUSH1 0x40 MLOAD PUSH1 0x20 ADD PUSH2 0x1304 SWAP2 DUP2 MSTORE PUSH1 0x20 ADD SWAP1 JUMP JUMPDEST PUSH1 0x40 DUP1 MLOAD PUSH1 0x1F NOT DUP2 DUP5 SUB ADD DUP2 MSTORE SWAP1 DUP3 SWAP1 MSTORE PUSH3 0x461BCD PUSH1 0xE5 SHL DUP3 MSTORE PUSH2 0x6D9 SWAP2 PUSH1 0x4 ADD PUSH2 0x2717 JUMP JUMPDEST PUSH1 0x60 PUSH0 DUP3 PUSH1 0x1 PUSH1 0x1 PUSH1 0x40 SHL SUB DUP2 GT ISZERO PUSH2 0x1345 JUMPI PUSH2 0x1345 PUSH2 0x2516 JUMP JUMPDEST PUSH1 0x40 MLOAD SWAP1 DUP1 DUP3 MSTORE DUP1 PUSH1 0x20 MUL PUSH1 0x20 ADD DUP3 ADD PUSH1 0x40 MSTORE DUP1 ISZERO PUSH2 0x136E JUMPI DUP2 PUSH1 0x20 ADD PUSH1 0x20 DUP3 MUL DUP1 CALLDATASIZE DUP4 CALLDATACOPY ADD SWAP1 POP JUMPDEST POP PUSH1 0x1 PUSH1 0x1 PUSH1 0xA0 SHL SUB DUP1 DUP7 AND PUSH0 SWAP1 DUP2 MSTORE PUSH1 0x1 PUSH1 0x20 MSTORE PUSH1 0x40 DUP2 KECCAK256 SLOAD SWAP3 SWAP5 POP SWAP2 AND JUMPDEST PUSH1 0x1 PUSH1 0x1 PUSH1 0xA0 SHL SUB DUP2 AND ISZERO DUP1 ISZERO SWAP1 PUSH2 0x13B0 JUMPI POP PUSH1 0x1 PUSH1 0x1 PUSH1 0xA0 SHL SUB DUP2 AND PUSH1 0x1 EQ ISZERO JUMPDEST DUP1 ISZERO PUSH2 0x13BB JUMPI POP DUP5 DUP3 LT JUMPDEST ISZERO PUSH2 0x1412 JUMPI DUP1 DUP5 DUP4 DUP2 MLOAD DUP2 LT PUSH2 0x13D3 JUMPI PUSH2 0x13D3 PUSH2 0x2E8E JUMP JUMPDEST PUSH1 0x1 PUSH1 0x1 PUSH1 0xA0 SHL SUB SWAP3 DUP4 AND PUSH1 0x20 SWAP2 DUP3 MUL SWAP3 SWAP1 SWAP3 ADD DUP2 ADD SWAP2 SWAP1 SWAP2 MSTORE SWAP2 DUP2 AND PUSH0 SWAP1 DUP2 MSTORE PUSH1 0x1 SWAP1 SWAP3 MSTORE PUSH1 0x40 SWAP1 SWAP2 KECCAK256 SLOAD AND DUP2 PUSH2 0x140A DUP2 PUSH2 0x2C9F JUMP JUMPDEST SWAP3 POP POP PUSH2 0x138E JUMP JUMPDEST SWAP1 DUP4 MSTORE SWAP2 SWAP5 SWAP2 SWAP4 POP SWAP1 SWAP2 POP POP JUMP JUMPDEST CALLER PUSH0 SWAP1 DUP2 MSTORE PUSH1 0x2 PUSH1 0x20 MSTORE PUSH1 0x40 SWAP1 KECCAK256 SLOAD PUSH1 0x1 PUSH1 0x1 PUSH1 0xA0 SHL SUB AND PUSH2 0x146C JUMPI PUSH1 0x40 MLOAD PUSH3 0x461BCD PUSH1 0xE5 SHL DUP2 MSTORE PUSH1 0x20 PUSH1 0x4 DUP3 ADD MSTORE PUSH1 0x5 PUSH1 0x24 DUP3 ADD MSTORE PUSH5 0x475330333 PUSH1 0xDC SHL PUSH1 0x44 DUP3 ADD MSTORE PUSH1 0x64 ADD PUSH2 0x6D9 JUMP JUMPDEST CALLER PUSH0 DUP2 DUP2 MSTORE PUSH1 0x8 PUSH1 0x20 SWAP1 DUP2 MSTORE PUSH1 0x40 DUP1 DUP4 KECCAK256 DUP6 DUP5 MSTORE SWAP1 SWAP2 MSTORE DUP1 DUP3 KECCAK256 PUSH1 0x1 SWAP1 SSTORE MLOAD DUP4 SWAP2 PUSH32 0xF2A0EB156472D1440255B0D7C1E19CC07115D1051FE605B0DCE69ACFEC884D9C SWAP2 LOG3 POP JUMP JUMPDEST PUSH0 PUSH2 0x14C7 DUP13 DUP13 DUP13 DUP13 DUP13 DUP13 DUP13 DUP13 DUP13 DUP13 DUP13 PUSH2 0x185D JUMP JUMPDEST DUP1 MLOAD SWAP1 PUSH1 0x20 ADD KECCAK256 SWAP1 POP SWAP12 SWAP11 POP POP POP POP POP POP POP POP POP POP POP JUMP JUMPDEST PUSH2 0x14E7 PUSH2 0x1B64 JUMP JUMPDEST PUSH1 0x1 PUSH1 0x1 PUSH1 0xA0 SHL SUB DUP2 AND ISZERO DUP1 ISZERO SWAP1 PUSH2 0x1509 JUMPI POP PUSH1 0x1 PUSH1 0x1 PUSH1 0xA0 SHL SUB DUP2 AND PUSH1 0x1 EQ ISZERO JUMPDEST PUSH2 0x153D JUMPI PUSH1 0x40 MLOAD PUSH3 0x461BCD PUSH1 0xE5 SHL DUP2 MSTORE PUSH1 0x20 PUSH1 0x4 DUP3 ADD MSTORE PUSH1 0x5 PUSH1 0x24 DUP3 ADD MSTORE PUSH5 0x4753313031 PUSH1 0xD8 SHL PUSH1 0x44 DUP3 ADD MSTORE PUSH1 0x64 ADD PUSH2 0x6D9 JUMP JUMPDEST PUSH1 0x1 PUSH1 0x1 PUSH1 0xA0 SHL SUB DUP3 DUP2 AND PUSH0 SWAP1 DUP2 MSTORE PUSH1 0x1 PUSH1 0x20 MSTORE PUSH1 0x40 SWAP1 KECCAK256 SLOAD DUP2 AND SWAP1 DUP3 AND EQ PUSH2 0x1590 JUMPI PUSH1 0x40 MLOAD PUSH3 0x461BCD PUSH1 0xE5 SHL DUP2 MSTORE PUSH1 0x20 PUSH1 0x4 DUP3 ADD MSTORE PUSH1 0x5 PUSH1 0x24 DUP3 ADD MSTORE PUSH5 0x4753313033 PUSH1 0xD8 SHL PUSH1 0x44 DUP3 ADD MSTORE PUSH1 0x64 ADD PUSH2 0x6D9 JUMP JUMPDEST PUSH1 0x1 PUSH1 0x1 PUSH1 0xA0 SHL SUB DUP2 DUP2 AND PUSH0 DUP2 DUP2 MSTORE PUSH1 0x1 PUSH1 0x20 SWAP1 DUP2 MSTORE PUSH1 0x40 DUP1 DUP4 KECCAK256 DUP1 SLOAD DUP9 DUP8 AND DUP6 MSTORE DUP3 DUP6 KECCAK256 DUP1 SLOAD SWAP2 SWAP1 SWAP8 AND PUSH1 0x1 PUSH1 0x1 PUSH1 0xA0 SHL SUB NOT SWAP2 DUP3 AND OR SWAP1 SWAP7 SSTORE SWAP3 DUP5 SWAP1 MSTORE DUP3 SLOAD SWAP1 SWAP5 AND SWAP1 SWAP2 SSTORE SWAP2 MLOAD SWAP1 DUP2 MSTORE PUSH32 0xAAB4FA2B463F581B2B32CB3B7E3B704B9CE37CC209B5FB4D77E593ACE4054276 SWAP2 ADD JUMPDEST PUSH1 0x40 MLOAD DUP1 SWAP2 SUB SWAP1 LOG1 POP POP JUMP JUMPDEST PUSH2 0x1614 PUSH2 0x1B64 JUMP JUMPDEST PUSH32 0x4A204F620C8C5CCDCA3FD54D003BADD85BA500436A431F0CBDA4F558C93C34C8 DUP2 DUP2 SSTORE PUSH1 0x40 MLOAD PUSH1 0x1 PUSH1 0x1 PUSH1 0xA0 SHL SUB DUP4 AND DUP2 MSTORE PUSH32 0x1151116914515BC0891FF9047A6CB32CF902546F83066499BCF8BA33D2353FA2 SWAP1 PUSH1 0x20 ADD PUSH2 0x1600 JUMP JUMPDEST PUSH2 0x1679 PUSH2 0x1B64 JUMP JUMPDEST PUSH1 0x1 PUSH1 0x1 PUSH1 0xA0 SHL SUB DUP2 AND ISZERO DUP1 ISZERO SWAP1 PUSH2 0x169B JUMPI POP PUSH1 0x1 PUSH1 0x1 PUSH1 0xA0 SHL SUB DUP2 AND PUSH1 0x1 EQ ISZERO JUMPDEST DUP1 ISZERO PUSH2 0x16B0 JUMPI POP PUSH1 0x1 PUSH1 0x1 PUSH1 0xA0 SHL SUB DUP2 AND ADDRESS EQ ISZERO JUMPDEST PUSH2 0x16CC JUMPI PUSH1 0x40 MLOAD PUSH3 0x461BCD PUSH1 0xE5 SHL DUP2 MSTORE PUSH1 0x4 ADD PUSH2 0x6D9 SWAP1 PUSH2 0x2C4D JUMP JUMPDEST PUSH1 0x1 PUSH1 0x1 PUSH1 0xA0 SHL SUB DUP2 DUP2 AND PUSH0 SWAP1 DUP2 MSTORE PUSH1 0x2 PUSH1 0x20 MSTORE PUSH1 0x40 SWAP1 KECCAK256 SLOAD AND ISZERO PUSH2 0x1703 JUMPI PUSH1 0x40 MLOAD PUSH3 0x461BCD PUSH1 0xE5 SHL DUP2 MSTORE PUSH1 0x4 ADD PUSH2 0x6D9 SWAP1 PUSH2 0x2C6C JUMP JUMPDEST PUSH1 0x1 PUSH1 0x1 PUSH1 0xA0 SHL SUB DUP3 AND ISZERO DUP1 ISZERO SWAP1 PUSH2 0x1725 JUMPI POP PUSH1 0x1 PUSH1 0x1 PUSH1 0xA0 SHL SUB DUP3 AND PUSH1 0x1 EQ ISZERO JUMPDEST PUSH2 0x1741 JUMPI PUSH1 0x40 MLOAD PUSH3 0x461BCD PUSH1 0xE5 SHL DUP2 MSTORE PUSH1 0x4 ADD PUSH2 0x6D9 SWAP1 PUSH2 0x2C4D JUMP JUMPDEST PUSH1 0x1 PUSH1 0x1 PUSH1 0xA0 SHL SUB DUP4 DUP2 AND PUSH0 SWAP1 DUP2 MSTORE PUSH1 0x2 PUSH1 0x20 MSTORE PUSH1 0x40 SWAP1 KECCAK256 SLOAD DUP2 AND SWAP1 DUP4 AND EQ PUSH2 0x1794 JUMPI PUSH1 0x40 MLOAD PUSH3 0x461BCD PUSH1 0xE5 SHL DUP2 MSTORE PUSH1 0x20 PUSH1 0x4 DUP3 ADD MSTORE PUSH1 0x5 PUSH1 0x24 DUP3 ADD MSTORE PUSH5 0x4753323035 PUSH1 0xD8 SHL PUSH1 0x44 DUP3 ADD MSTORE PUSH1 0x64 ADD PUSH2 0x6D9 JUMP JUMPDEST PUSH1 0x1 PUSH1 0x1 PUSH1 0xA0 SHL SUB DUP3 DUP2 AND PUSH0 DUP2 DUP2 MSTORE PUSH1 0x2 PUSH1 0x20 SWAP1 DUP2 MSTORE PUSH1 0x40 DUP1 DUP4 KECCAK256 DUP1 SLOAD DUP8 DUP8 AND DUP1 DUP7 MSTORE DUP4 DUP7 KECCAK256 DUP1 SLOAD SWAP3 DUP10 AND PUSH1 0x1 PUSH1 0x1 PUSH1 0xA0 SHL SUB NOT SWAP4 DUP5 AND OR SWAP1 SSTORE SWAP7 DUP11 AND DUP6 MSTORE DUP3 DUP6 KECCAK256 DUP1 SLOAD DUP3 AND SWAP1 SWAP8 OR SWAP1 SWAP7 SSTORE SWAP3 DUP5 SWAP1 MSTORE DUP3 SLOAD SWAP1 SWAP5 AND SWAP1 SWAP2 SSTORE SWAP2 MLOAD SWAP1 DUP2 MSTORE PUSH32 0xF8D49FC529812E9A7C5C50E69C20F0DCCC0DB8FA95C98BC58CC9A4F1C1299EAF SWAP2 ADD PUSH1 0x40 MLOAD DUP1 SWAP2 SUB SWAP1 LOG1 PUSH1 0x40 MLOAD PUSH1 0x1 PUSH1 0x1 PUSH1 0xA0 SHL SUB DUP3 AND DUP2 MSTORE PUSH32 0x9465FA0C962CC76958E6373A993326400C1C94F8BE2FE3A952ADFA7F60B2EA26 SWAP1 PUSH1 0x20 ADD PUSH1 0x40 MLOAD DUP1 SWAP2 SUB SWAP1 LOG1 POP POP POP JUMP JUMPDEST PUSH1 0x60 PUSH0 PUSH32 0xBB8310D486368DB6BD6F849402FDD73AD53D316B5A4B2644AD6EFE0F941286D8 PUSH0 SHL DUP14 DUP14 DUP14 DUP14 PUSH1 0x40 MLOAD PUSH2 0x1895 SWAP3 SWAP2 SWAP1 PUSH2 0x2F20 JUMP JUMPDEST PUSH1 0x40 MLOAD SWAP1 DUP2 SWAP1 SUB DUP2 KECCAK256 PUSH2 0x18BB SWAP5 SWAP4 SWAP3 SWAP2 DUP15 SWAP1 DUP15 SWAP1 DUP15 SWAP1 DUP15 SWAP1 DUP15 SWAP1 DUP15 SWAP1 DUP15 SWAP1 PUSH1 0x20 ADD PUSH2 0x2F2F JUMP JUMPDEST PUSH1 0x40 DUP1 MLOAD PUSH1 0x1F NOT DUP2 DUP5 SUB ADD DUP2 MSTORE SWAP2 SWAP1 MSTORE DUP1 MLOAD PUSH1 0x20 SWAP1 SWAP2 ADD KECCAK256 SWAP1 POP PUSH1 0x19 PUSH1 0xF8 SHL PUSH1 0x1 PUSH1 0xF8 SHL PUSH2 0x18E7 PUSH2 0x199D JUMP JUMPDEST PUSH1 0x40 MLOAD PUSH1 0x1 PUSH1 0x1 PUSH1 0xF8 SHL SUB NOT SWAP4 DUP5 AND PUSH1 0x20 DUP3 ADD MSTORE SWAP3 SWAP1 SWAP2 AND PUSH1 0x21 DUP4 ADD MSTORE PUSH1 0x22 DUP3 ADD MSTORE PUSH1 0x42 DUP2 ADD DUP3 SWAP1 MSTORE PUSH1 0x62 ADD PUSH1 0x40 MLOAD PUSH1 0x20 DUP2 DUP4 SUB SUB DUP2 MSTORE SWAP1 PUSH1 0x40 MSTORE SWAP2 POP POP SWAP12 SWAP11 POP POP POP POP POP POP POP POP POP POP POP JUMP JUMPDEST PUSH2 0x193C PUSH2 0x1B64 JUMP JUMPDEST PUSH2 0x1964 DUP2 PUSH32 0x6C9A6C4A39284E37ED1CF53D337577D14212A4870FB976A4366C693B939918D5 SSTORE JUMP JUMPDEST PUSH1 0x40 MLOAD PUSH1 0x1 PUSH1 0x1 PUSH1 0xA0 SHL SUB DUP3 AND DUP2 MSTORE PUSH32 0x5AC6C46C93C8D0E53714BA3B53DB3E7C046DA994313D7ED0D192028BC7C228B0 SWAP1 PUSH1 0x20 ADD PUSH2 0xED6 JUMP JUMPDEST PUSH0 PUSH32 0x47E79534A245952E8B16893A336B85A3D9EA9FA8C573F3D803AFB92A79469218 CHAINID PUSH1 0x40 DUP1 MLOAD PUSH1 0x20 DUP2 ADD SWAP4 SWAP1 SWAP4 MSTORE DUP3 ADD MSTORE ADDRESS PUSH1 0x60 DUP3 ADD MSTORE PUSH1 0x80 ADD PUSH1 0x40 MLOAD PUSH1 0x20 DUP2 DUP4 SUB SUB DUP2 MSTORE SWAP1 PUSH1 0x40 MSTORE DUP1 MLOAD SWAP1 PUSH1 0x20 ADD KECCAK256 SWAP1 POP SWAP1 JUMP JUMPDEST PUSH2 0x19FB PUSH2 0x1B64 JUMP JUMPDEST DUP1 PUSH1 0x1 PUSH1 0x3 SLOAD PUSH2 0x1A0B SWAP2 SWAP1 PUSH2 0x2F0D JUMP JUMPDEST LT ISZERO PUSH2 0x1A29 JUMPI PUSH1 0x40 MLOAD PUSH3 0x461BCD PUSH1 0xE5 SHL DUP2 MSTORE PUSH1 0x4 ADD PUSH2 0x6D9 SWAP1 PUSH2 0x2DB1 JUMP JUMPDEST PUSH1 0x1 PUSH1 0x1 PUSH1 0xA0 SHL SUB DUP3 AND ISZERO DUP1 ISZERO SWAP1 PUSH2 0x1A4B JUMPI POP PUSH1 0x1 PUSH1 0x1 PUSH1 0xA0 SHL SUB DUP3 AND PUSH1 0x1 EQ ISZERO JUMPDEST PUSH2 0x1A67 JUMPI PUSH1 0x40 MLOAD PUSH3 0x461BCD PUSH1 0xE5 SHL DUP2 MSTORE PUSH1 0x4 ADD PUSH2 0x6D9 SWAP1 PUSH2 0x2C4D JUMP JUMPDEST PUSH1 0x1 PUSH1 0x1 PUSH1 0xA0 SHL SUB DUP4 DUP2 AND PUSH0 SWAP1 DUP2 MSTORE PUSH1 0x2 PUSH1 0x20 MSTORE PUSH1 0x40 SWAP1 KECCAK256 SLOAD DUP2 AND SWAP1 DUP4 AND EQ PUSH2 0x1ABA JUMPI PUSH1 0x40 MLOAD PUSH3 0x461BCD PUSH1 0xE5 SHL DUP2 MSTORE PUSH1 0x20 PUSH1 0x4 DUP3 ADD MSTORE PUSH1 0x5 PUSH1 0x24 DUP3 ADD MSTORE PUSH5 0x4753323035 PUSH1 0xD8 SHL PUSH1 0x44 DUP3 ADD MSTORE PUSH1 0x64 ADD PUSH2 0x6D9 JUMP JUMPDEST PUSH1 0x1 PUSH1 0x1 PUSH1 0xA0 SHL SUB DUP3 DUP2 AND PUSH0 DUP2 DUP2 MSTORE PUSH1 0x2 PUSH1 0x20 MSTORE PUSH1 0x40 DUP1 DUP3 KECCAK256 DUP1 SLOAD DUP9 DUP7 AND DUP5 MSTORE SWAP2 DUP4 KECCAK256 DUP1 SLOAD SWAP3 SWAP1 SWAP6 AND PUSH1 0x1 PUSH1 0x1 PUSH1 0xA0 SHL SUB NOT SWAP3 DUP4 AND OR SWAP1 SWAP5 SSTORE SWAP2 DUP2 MSTORE DUP3 SLOAD SWAP1 SWAP2 AND SWAP1 SWAP2 SSTORE PUSH1 0x3 DUP1 SLOAD SWAP2 PUSH2 0x1B0C DUP4 PUSH2 0x2F9E JUMP JUMPDEST SWAP1 SWAP2 SSTORE POP POP PUSH1 0x40 MLOAD PUSH1 0x1 PUSH1 0x1 PUSH1 0xA0 SHL SUB DUP4 AND DUP2 MSTORE PUSH32 0xF8D49FC529812E9A7C5C50E69C20F0DCCC0DB8FA95C98BC58CC9A4F1C1299EAF SWAP1 PUSH1 0x20 ADD PUSH1 0x40 MLOAD DUP1 SWAP2 SUB SWAP1 LOG1 DUP1 PUSH1 0x4 SLOAD EQ PUSH2 0x1B5F JUMPI PUSH2 0x1B5F DUP2 PUSH2 0xEE1 JUMP JUMPDEST POP POP POP JUMP JUMPDEST CALLER ADDRESS EQ PUSH2 0x1B9B JUMPI PUSH1 0x40 MLOAD PUSH3 0x461BCD PUSH1 0xE5 SHL DUP2 MSTORE PUSH1 0x20 PUSH1 0x4 DUP3 ADD MSTORE PUSH1 0x5 PUSH1 0x24 DUP3 ADD MSTORE PUSH5 0x4753303331 PUSH1 0xD8 SHL PUSH1 0x44 DUP3 ADD MSTORE PUSH1 0x64 ADD PUSH2 0x6D9 JUMP JUMPDEST JUMP JUMPDEST PUSH0 DUP3 PUSH0 SUB PUSH2 0x1BAC JUMPI POP PUSH0 PUSH2 0xC63 JUMP JUMPDEST PUSH0 PUSH2 0x1BB7 DUP4 DUP6 PUSH2 0x2D9A JUMP JUMPDEST SWAP1 POP DUP3 PUSH2 0x1BC4 DUP6 DUP4 PUSH2 0x2FB3 JUMP JUMPDEST EQ PUSH2 0x1BCD JUMPI PUSH0 DUP1 REVERT JUMPDEST SWAP4 SWAP3 POP POP POP JUMP JUMPDEST PUSH0 DUP1 PUSH2 0x1BE0 DUP4 DUP6 PUSH2 0x2FD2 JUMP JUMPDEST SWAP1 POP DUP4 DUP2 LT ISZERO PUSH2 0x1BCD JUMPI PUSH0 DUP1 REVERT JUMPDEST PUSH0 CALLER PUSH1 0x1 EQ DUP1 ISZERO SWAP1 PUSH2 0x1C16 JUMPI POP CALLER PUSH0 SWAP1 DUP2 MSTORE PUSH1 0x1 PUSH1 0x20 MSTORE PUSH1 0x40 SWAP1 KECCAK256 SLOAD PUSH1 0x1 PUSH1 0x1 PUSH1 0xA0 SHL SUB AND ISZERO ISZERO JUMPDEST PUSH2 0x1C4A JUMPI PUSH1 0x40 MLOAD PUSH3 0x461BCD PUSH1 0xE5 SHL DUP2 MSTORE PUSH1 0x20 PUSH1 0x4 DUP3 ADD MSTORE PUSH1 0x5 PUSH1 0x24 DUP3 ADD MSTORE PUSH5 0x11D4CC4C0D PUSH1 0xDA SHL PUSH1 0x44 DUP3 ADD MSTORE PUSH1 0x64 ADD PUSH2 0x6D9 JUMP JUMPDEST PUSH2 0x1C57 DUP6 DUP6 DUP6 DUP6 GAS PUSH2 0x23C9 JUMP JUMPDEST SWAP1 POP DUP1 ISZERO PUSH2 0x1C8E JUMPI PUSH1 0x40 MLOAD CALLER SWAP1 PUSH32 0x6895C13664AA4F67288B25D7A21D7AAA34916E355FB9B6FAE0A139A9085BECB8 SWAP1 PUSH0 SWAP1 LOG2 PUSH2 0x1CB9 JUMP JUMPDEST PUSH1 0x40 MLOAD CALLER SWAP1 PUSH32 0xACD2C8702804128FDB0DB2BB49F6D127DD0181C13FD45DBFE16DE0930E2BD375 SWAP1 PUSH0 SWAP1 LOG2 JUMPDEST SWAP5 SWAP4 POP POP POP POP JUMP JUMPDEST PUSH0 DUP1 PUSH0 PUSH2 0x1CD9 DUP15 DUP15 DUP15 DUP15 DUP15 DUP15 DUP15 DUP15 DUP15 DUP15 PUSH1 0x5 SLOAD PUSH2 0x185D JUMP JUMPDEST PUSH1 0x5 DUP1 SLOAD SWAP2 SWAP3 POP PUSH0 PUSH2 0x1CEA DUP4 PUSH2 0x2C9F JUMP JUMPDEST SWAP1 SWAP2 SSTORE POP POP DUP1 MLOAD PUSH1 0x20 DUP3 ADD KECCAK256 SWAP2 POP PUSH2 0x1D03 DUP3 DUP3 DUP7 PUSH2 0x1020 JUMP JUMPDEST POP PUSH0 PUSH2 0x1D2D PUSH32 0x4A204F620C8C5CCDCA3FD54D003BADD85BA500436A431F0CBDA4F558C93C34C8 SLOAD SWAP1 JUMP JUMPDEST SWAP1 POP PUSH1 0x1 PUSH1 0x1 PUSH1 0xA0 SHL SUB DUP2 AND ISZERO PUSH2 0x1DAE JUMPI DUP1 PUSH1 0x1 PUSH1 0x1 PUSH1 0xA0 SHL SUB AND PUSH4 0x75F0BB52 DUP16 DUP16 DUP16 DUP16 DUP16 DUP16 DUP16 DUP16 DUP16 DUP16 DUP16 CALLER PUSH1 0x40 MLOAD DUP14 PUSH4 0xFFFFFFFF AND PUSH1 0xE0 SHL DUP2 MSTORE PUSH1 0x4 ADD PUSH2 0x1D80 SWAP13 SWAP12 SWAP11 SWAP10 SWAP9 SWAP8 SWAP7 SWAP6 SWAP5 SWAP4 SWAP3 SWAP2 SWAP1 PUSH2 0x2FE5 JUMP JUMPDEST PUSH0 PUSH1 0x40 MLOAD DUP1 DUP4 SUB DUP2 PUSH0 DUP8 DUP1 EXTCODESIZE ISZERO DUP1 ISZERO PUSH2 0x1D97 JUMPI PUSH0 DUP1 REVERT JUMPDEST POP GAS CALL ISZERO DUP1 ISZERO PUSH2 0x1DA9 JUMPI RETURNDATASIZE PUSH0 DUP1 RETURNDATACOPY RETURNDATASIZE PUSH0 REVERT JUMPDEST POP POP POP POP JUMPDEST PUSH2 0x1DDA PUSH2 0x1DBD DUP11 PUSH2 0x9C4 PUSH2 0x2FD2 JUMP JUMPDEST PUSH1 0x3F PUSH2 0x1DCA DUP13 PUSH1 0x40 PUSH2 0x2D9A JUMP JUMPDEST PUSH2 0x1DD4 SWAP2 SWAP1 PUSH2 0x2FB3 JUMP JUMPDEST SWAP1 PUSH2 0x240B JUMP JUMPDEST PUSH2 0x1DE6 SWAP1 PUSH2 0x1F4 PUSH2 0x2FD2 JUMP JUMPDEST GAS LT ISZERO PUSH2 0x1E1D JUMPI PUSH1 0x40 MLOAD PUSH3 0x461BCD PUSH1 0xE5 SHL DUP2 MSTORE PUSH1 0x20 PUSH1 0x4 DUP3 ADD MSTORE PUSH1 0x5 PUSH1 0x24 DUP3 ADD MSTORE PUSH5 0x475330313 PUSH1 0xDC SHL PUSH1 0x44 DUP3 ADD MSTORE PUSH1 0x64 ADD PUSH2 0x6D9 JUMP JUMPDEST PUSH0 GAS SWAP1 POP PUSH2 0x1E8B DUP16 DUP16 DUP16 DUP16 DUP1 DUP1 PUSH1 0x1F ADD PUSH1 0x20 DUP1 SWAP2 DIV MUL PUSH1 0x20 ADD PUSH1 0x40 MLOAD SWAP1 DUP2 ADD PUSH1 0x40 MSTORE DUP1 SWAP4 SWAP3 SWAP2 SWAP1 DUP2 DUP2 MSTORE PUSH1 0x20 ADD DUP4 DUP4 DUP1 DUP3 DUP5 CALLDATACOPY PUSH0 DUP2 DUP5 ADD MSTORE PUSH1 0x1F NOT PUSH1 0x1F DUP3 ADD AND SWAP1 POP DUP1 DUP4 ADD SWAP3 POP POP POP POP POP POP POP DUP15 DUP13 PUSH0 EQ PUSH2 0x1E78 JUMPI DUP15 PUSH2 0x23C9 JUMP JUMPDEST PUSH2 0x9C4 GAS PUSH2 0x1E86 SWAP2 SWAP1 PUSH2 0x2F0D JUMP JUMPDEST PUSH2 0x23C9 JUMP JUMPDEST SWAP4 POP PUSH2 0x1E98 GAS DUP3 SWAP1 PUSH2 0x2421 JUMP JUMPDEST SWAP1 POP DUP4 DUP1 PUSH2 0x1EA5 JUMPI POP DUP10 ISZERO ISZERO JUMPDEST DUP1 PUSH2 0x1EAF JUMPI POP DUP8 ISZERO ISZERO JUMPDEST PUSH2 0x1EE3 JUMPI PUSH1 0x40 MLOAD PUSH3 0x461BCD PUSH1 0xE5 SHL DUP2 MSTORE PUSH1 0x20 PUSH1 0x4 DUP3 ADD MSTORE PUSH1 0x5 PUSH1 0x24 DUP3 ADD MSTORE PUSH5 0x4753303133 PUSH1 0xD8 SHL PUSH1 0x44 DUP3 ADD MSTORE PUSH1 0x64 ADD PUSH2 0x6D9 JUMP JUMPDEST PUSH0 DUP9 ISZERO PUSH2 0x1EFA JUMPI PUSH2 0x1EF7 DUP3 DUP12 DUP12 DUP12 DUP12 PUSH2 0x22C5 JUMP JUMPDEST SWAP1 POP JUMPDEST DUP5 ISZERO PUSH2 0x1F3E JUMPI PUSH1 0x40 DUP1 MLOAD DUP6 DUP2 MSTORE PUSH1 0x20 DUP2 ADD DUP4 SWAP1 MSTORE PUSH32 0x442E715F626346E8C54381002DA614F62BEE8D27386535B2521EC8540898556E SWAP2 ADD PUSH1 0x40 MLOAD DUP1 SWAP2 SUB SWAP1 LOG1 PUSH2 0x1F78 JUMP JUMPDEST PUSH1 0x40 DUP1 MLOAD DUP6 DUP2 MSTORE PUSH1 0x20 DUP2 ADD DUP4 SWAP1 MSTORE PUSH32 0x23428B18ACFB3EA64B08DC0C1D296EA9C09702C09083CA5272E64D115B687D23 SWAP2 ADD PUSH1 0x40 MLOAD DUP1 SWAP2 SUB SWAP1 LOG1 JUMPDEST POP POP PUSH1 0x1 PUSH1 0x1 PUSH1 0xA0 SHL SUB DUP2 AND ISZERO PUSH2 0x1FE7 JUMPI PUSH1 0x40 MLOAD PUSH4 0x1264E26D PUSH1 0xE3 SHL DUP2 MSTORE PUSH1 0x4 DUP2 ADD DUP4 SWAP1 MSTORE DUP4 ISZERO ISZERO PUSH1 0x24 DUP3 ADD MSTORE PUSH1 0x1 PUSH1 0x1 PUSH1 0xA0 SHL SUB DUP3 AND SWAP1 PUSH4 0x93271368 SWAP1 PUSH1 0x44 ADD PUSH0 PUSH1 0x40 MLOAD DUP1 DUP4 SUB DUP2 PUSH0 DUP8 DUP1 EXTCODESIZE ISZERO DUP1 ISZERO PUSH2 0x1FD0 JUMPI PUSH0 DUP1 REVERT JUMPDEST POP GAS CALL ISZERO DUP1 ISZERO PUSH2 0x1FE2 JUMPI RETURNDATASIZE PUSH0 DUP1 RETURNDATACOPY RETURNDATASIZE PUSH0 REVERT JUMPDEST POP POP POP POP JUMPDEST POP POP SWAP12 SWAP11 POP POP POP POP POP POP POP POP POP POP POP JUMP JUMPDEST PUSH1 0x4 SLOAD ISZERO PUSH2 0x2030 JUMPI PUSH1 0x40 MLOAD PUSH3 0x461BCD PUSH1 0xE5 SHL DUP2 MSTORE PUSH1 0x20 PUSH1 0x4 DUP3 ADD MSTORE PUSH1 0x5 PUSH1 0x24 DUP3 ADD MSTORE PUSH5 0x475332303 PUSH1 0xDC SHL PUSH1 0x44 DUP3 ADD MSTORE PUSH1 0x64 ADD PUSH2 0x6D9 JUMP JUMPDEST DUP2 MLOAD DUP2 GT ISZERO PUSH2 0x2051 JUMPI PUSH1 0x40 MLOAD PUSH3 0x461BCD PUSH1 0xE5 SHL DUP2 MSTORE PUSH1 0x4 ADD PUSH2 0x6D9 SWAP1 PUSH2 0x2DB1 JUMP JUMPDEST PUSH1 0x1 DUP2 LT ISZERO PUSH2 0x208A JUMPI PUSH1 0x40 MLOAD PUSH3 0x461BCD PUSH1 0xE5 SHL DUP2 MSTORE PUSH1 0x20 PUSH1 0x4 DUP3 ADD MSTORE PUSH1 0x5 PUSH1 0x24 DUP3 ADD MSTORE PUSH5 0x23A9991819 PUSH1 0xD9 SHL PUSH1 0x44 DUP3 ADD MSTORE PUSH1 0x64 ADD PUSH2 0x6D9 JUMP JUMPDEST PUSH1 0x1 PUSH0 JUMPDEST DUP4 MLOAD DUP2 LT ISZERO PUSH2 0x219C JUMPI PUSH0 DUP5 DUP3 DUP2 MLOAD DUP2 LT PUSH2 0x20AA JUMPI PUSH2 0x20AA PUSH2 0x2E8E JUMP JUMPDEST PUSH1 0x20 MUL PUSH1 0x20 ADD ADD MLOAD SWAP1 POP PUSH0 PUSH1 0x1 PUSH1 0x1 PUSH1 0xA0 SHL SUB AND DUP2 PUSH1 0x1 PUSH1 0x1 PUSH1 0xA0 SHL SUB AND EQ ISZERO DUP1 ISZERO PUSH2 0x20E0 JUMPI POP PUSH1 0x1 PUSH1 0x1 PUSH1 0xA0 SHL SUB DUP2 AND PUSH1 0x1 EQ ISZERO JUMPDEST DUP1 ISZERO PUSH2 0x20F5 JUMPI POP PUSH1 0x1 PUSH1 0x1 PUSH1 0xA0 SHL SUB DUP2 AND ADDRESS EQ ISZERO JUMPDEST DUP1 ISZERO PUSH2 0x2113 JUMPI POP DUP1 PUSH1 0x1 PUSH1 0x1 PUSH1 0xA0 SHL SUB AND DUP4 PUSH1 0x1 PUSH1 0x1 PUSH1 0xA0 SHL SUB AND EQ ISZERO JUMPDEST PUSH2 0x212F JUMPI PUSH1 0x40 MLOAD PUSH3 0x461BCD PUSH1 0xE5 SHL DUP2 MSTORE PUSH1 0x4 ADD PUSH2 0x6D9 SWAP1 PUSH2 0x2C4D JUMP JUMPDEST PUSH1 0x1 PUSH1 0x1 PUSH1 0xA0 SHL SUB DUP2 DUP2 AND PUSH0 SWAP1 DUP2 MSTORE PUSH1 0x2 PUSH1 0x20 MSTORE PUSH1 0x40 SWAP1 KECCAK256 SLOAD AND ISZERO PUSH2 0x2166 JUMPI PUSH1 0x40 MLOAD PUSH3 0x461BCD PUSH1 0xE5 SHL DUP2 MSTORE PUSH1 0x4 ADD PUSH2 0x6D9 SWAP1 PUSH2 0x2C6C JUMP JUMPDEST PUSH1 0x1 PUSH1 0x1 PUSH1 0xA0 SHL SUB SWAP3 DUP4 AND PUSH0 SWAP1 DUP2 MSTORE PUSH1 0x2 PUSH1 0x20 MSTORE PUSH1 0x40 SWAP1 KECCAK256 DUP1 SLOAD PUSH1 0x1 PUSH1 0x1 PUSH1 0xA0 SHL SUB NOT AND SWAP4 DUP3 AND SWAP4 SWAP1 SWAP4 OR SWAP1 SWAP3 SSTORE PUSH1 0x1 ADD PUSH2 0x208E JUMP JUMPDEST POP PUSH1 0x1 PUSH1 0x1 PUSH1 0xA0 SHL SUB AND PUSH0 SWAP1 DUP2 MSTORE PUSH1 0x2 PUSH1 0x20 MSTORE PUSH1 0x40 SWAP1 KECCAK256 DUP1 SLOAD PUSH1 0x1 PUSH1 0x1 PUSH1 0xA0 SHL SUB NOT AND PUSH1 0x1 OR SWAP1 SSTORE SWAP1 MLOAD PUSH1 0x3 SSTORE PUSH1 0x4 SSTORE JUMP JUMPDEST PUSH1 0x1 PUSH0 DUP2 SWAP1 MSTORE PUSH1 0x20 MSTORE PUSH32 0xCC69885FDA6BCC1A4ACE058B4A62BF5E179EA78FD58A1CCD71C22CC9B688792F SLOAD PUSH1 0x1 PUSH1 0x1 PUSH1 0xA0 SHL SUB AND ISZERO PUSH2 0x2237 JUMPI PUSH1 0x40 MLOAD PUSH3 0x461BCD PUSH1 0xE5 SHL DUP2 MSTORE PUSH1 0x20 PUSH1 0x4 DUP3 ADD MSTORE PUSH1 0x5 PUSH1 0x24 DUP3 ADD MSTORE PUSH5 0x475331303 PUSH1 0xDC SHL PUSH1 0x44 DUP3 ADD MSTORE PUSH1 0x64 ADD PUSH2 0x6D9 JUMP JUMPDEST PUSH1 0x1 PUSH0 DUP2 SWAP1 MSTORE PUSH1 0x20 DUP2 SWAP1 MSTORE PUSH32 0xCC69885FDA6BCC1A4ACE058B4A62BF5E179EA78FD58A1CCD71C22CC9B688792F DUP1 SLOAD PUSH1 0x1 PUSH1 0x1 PUSH1 0xA0 SHL SUB NOT AND SWAP1 SWAP2 OR SWAP1 SSTORE PUSH1 0x1 PUSH1 0x1 PUSH1 0xA0 SHL SUB DUP3 AND ISZERO PUSH2 0x7D8 JUMPI PUSH2 0x2291 DUP3 PUSH0 DUP4 PUSH1 0x1 GAS PUSH2 0x23C9 JUMP JUMPDEST PUSH2 0x7D8 JUMPI PUSH1 0x40 MLOAD PUSH3 0x461BCD PUSH1 0xE5 SHL DUP2 MSTORE PUSH1 0x20 PUSH1 0x4 DUP3 ADD MSTORE PUSH1 0x5 PUSH1 0x24 DUP3 ADD MSTORE PUSH5 0x475330303 PUSH1 0xDC SHL PUSH1 0x44 DUP3 ADD MSTORE PUSH1 0x64 ADD PUSH2 0x6D9 JUMP JUMPDEST PUSH0 DUP1 PUSH1 0x1 PUSH1 0x1 PUSH1 0xA0 SHL SUB DUP4 AND ISZERO PUSH2 0x22DC JUMPI DUP3 PUSH2 0x22DE JUMP JUMPDEST ORIGIN JUMPDEST SWAP1 POP PUSH1 0x1 PUSH1 0x1 PUSH1 0xA0 SHL SUB DUP5 AND PUSH2 0x2370 JUMPI PUSH2 0x2310 GASPRICE DUP7 LT PUSH2 0x22FE JUMPI GASPRICE PUSH2 0x2300 JUMP JUMPDEST DUP6 JUMPDEST PUSH2 0x230A DUP10 DUP10 PUSH2 0x1BD4 JUMP JUMPDEST SWAP1 PUSH2 0x1B9D JUMP JUMPDEST PUSH1 0x40 MLOAD SWAP1 SWAP3 POP PUSH1 0x1 PUSH1 0x1 PUSH1 0xA0 SHL SUB DUP3 AND SWAP1 DUP4 ISZERO PUSH2 0x8FC MUL SWAP1 DUP5 SWAP1 PUSH0 DUP2 DUP2 DUP2 DUP6 DUP9 DUP9 CALL SWAP4 POP POP POP POP PUSH2 0x236B JUMPI PUSH1 0x40 MLOAD PUSH3 0x461BCD PUSH1 0xE5 SHL DUP2 MSTORE PUSH1 0x20 PUSH1 0x4 DUP3 ADD MSTORE PUSH1 0x5 PUSH1 0x24 DUP3 ADD MSTORE PUSH5 0x4753303131 PUSH1 0xD8 SHL PUSH1 0x44 DUP3 ADD MSTORE PUSH1 0x64 ADD PUSH2 0x6D9 JUMP JUMPDEST PUSH2 0x23BF JUMP JUMPDEST PUSH2 0x237E DUP6 PUSH2 0x230A DUP10 DUP10 PUSH2 0x1BD4 JUMP JUMPDEST SWAP2 POP PUSH2 0x238B DUP5 DUP3 DUP5 PUSH2 0x2439 JUMP JUMPDEST PUSH2 0x23BF JUMPI PUSH1 0x40 MLOAD PUSH3 0x461BCD PUSH1 0xE5 SHL DUP2 MSTORE PUSH1 0x20 PUSH1 0x4 DUP3 ADD MSTORE PUSH1 0x5 PUSH1 0x24 DUP3 ADD MSTORE PUSH5 0x23A9981899 PUSH1 0xD9 SHL PUSH1 0x44 DUP3 ADD MSTORE PUSH1 0x64 ADD PUSH2 0x6D9 JUMP JUMPDEST POP SWAP6 SWAP5 POP POP POP POP POP JUMP JUMPDEST PUSH0 PUSH1 0x1 DUP4 PUSH1 0x1 DUP2 GT ISZERO PUSH2 0x23DE JUMPI PUSH2 0x23DE PUSH2 0x2D1B JUMP JUMPDEST SUB PUSH2 0x23F5 JUMPI PUSH0 DUP1 DUP6 MLOAD PUSH1 0x20 DUP8 ADD DUP10 DUP7 DELEGATECALL SWAP1 POP PUSH2 0xCEB JUMP JUMPDEST PUSH0 DUP1 DUP6 MLOAD PUSH1 0x20 DUP8 ADD DUP9 DUP11 DUP8 CALL SWAP7 SWAP6 POP POP POP POP POP POP JUMP JUMPDEST PUSH0 DUP2 DUP4 LT ISZERO PUSH2 0x241A JUMPI DUP2 PUSH2 0x1BCD JUMP JUMPDEST POP SWAP1 SWAP2 SWAP1 POP JUMP JUMPDEST PUSH0 DUP3 DUP3 GT ISZERO PUSH2 0x242E JUMPI PUSH0 DUP1 REVERT JUMPDEST PUSH0 PUSH2 0x1CB9 DUP4 DUP6 PUSH2 0x2F0D JUMP JUMPDEST PUSH1 0x40 DUP1 MLOAD PUSH1 0x1 PUSH1 0x1 PUSH1 0xA0 SHL SUB DUP5 AND PUSH1 0x24 DUP3 ADD MSTORE PUSH1 0x44 DUP1 DUP3 ADD DUP5 SWAP1 MSTORE DUP3 MLOAD DUP1 DUP4 SUB SWAP1 SWAP2 ADD DUP2 MSTORE PUSH1 0x64 SWAP1 SWAP2 ADD SWAP1 SWAP2 MSTORE PUSH1 0x20 DUP1 DUP3 ADD DUP1 MLOAD PUSH1 0x1 PUSH1 0x1 PUSH1 0xE0 SHL SUB AND PUSH4 0xA9059CBB PUSH1 0xE0 SHL OR DUP2 MSTORE DUP3 MLOAD PUSH0 SWAP4 SWAP3 SWAP2 DUP5 SWAP2 SWAP1 DUP3 DUP10 PUSH2 0x2710 GAS SUB CALL RETURNDATASIZE DUP1 ISZERO PUSH2 0x24A9 JUMPI PUSH1 0x20 DUP2 EQ PUSH2 0x24B1 JUMPI PUSH0 SWAP4 POP PUSH2 0x24BB JUMP JUMPDEST DUP2 SWAP4 POP PUSH2 0x24BB JUMP JUMPDEST PUSH0 MLOAD ISZERO DUP3 ISZERO OR ISZERO SWAP4 POP JUMPDEST POP POP POP SWAP4 SWAP3 POP POP POP JUMP JUMPDEST PUSH1 0x1 PUSH1 0x1 PUSH1 0xA0 SHL SUB DUP2 AND DUP2 EQ PUSH2 0x24D9 JUMPI PUSH0 DUP1 REVERT JUMPDEST POP JUMP JUMPDEST DUP1 CALLDATALOAD PUSH2 0x24E7 DUP2 PUSH2 0x24C5 JUMP JUMPDEST SWAP2 SWAP1 POP JUMP JUMPDEST PUSH0 DUP1 PUSH1 0x40 DUP4 DUP6 SUB SLT ISZERO PUSH2 0x24FD JUMPI PUSH0 DUP1 REVERT JUMPDEST DUP3 CALLDATALOAD PUSH2 0x2508 DUP2 PUSH2 0x24C5 JUMP JUMPDEST SWAP5 PUSH1 0x20 SWAP4 SWAP1 SWAP4 ADD CALLDATALOAD SWAP4 POP POP POP JUMP JUMPDEST PUSH4 0x4E487B71 PUSH1 0xE0 SHL PUSH0 MSTORE PUSH1 0x41 PUSH1 0x4 MSTORE PUSH1 0x24 PUSH0 REVERT JUMPDEST PUSH0 DUP3 PUSH1 0x1F DUP4 ADD SLT PUSH2 0x2539 JUMPI PUSH0 DUP1 REVERT JUMPDEST DUP2 CALLDATALOAD PUSH1 0x1 PUSH1 0x1 PUSH1 0x40 SHL SUB DUP1 DUP3 GT ISZERO PUSH2 0x2553 JUMPI PUSH2 0x2553 PUSH2 0x2516 JUMP JUMPDEST PUSH1 0x40 MLOAD PUSH1 0x1F DUP4 ADD PUSH1 0x1F NOT SWAP1 DUP2 AND PUSH1 0x3F ADD AND DUP2 ADD SWAP1 DUP3 DUP3 GT DUP2 DUP4 LT OR ISZERO PUSH2 0x257B JUMPI PUSH2 0x257B PUSH2 0x2516 JUMP JUMPDEST DUP2 PUSH1 0x40 MSTORE DUP4 DUP2 MSTORE DUP7 PUSH1 0x20 DUP6 DUP9 ADD ADD GT ISZERO PUSH2 0x2593 JUMPI PUSH0 DUP1 REVERT JUMPDEST DUP4 PUSH1 0x20 DUP8 ADD PUSH1 0x20 DUP4 ADD CALLDATACOPY PUSH0 PUSH1 0x20 DUP6 DUP4 ADD ADD MSTORE DUP1 SWAP5 POP POP POP POP POP SWAP3 SWAP2 POP POP JUMP JUMPDEST PUSH0 DUP1 PUSH0 DUP1 PUSH1 0x80 DUP6 DUP8 SUB SLT ISZERO PUSH2 0x25C5 JUMPI PUSH0 DUP1 REVERT JUMPDEST DUP5 CALLDATALOAD SWAP4 POP PUSH1 0x20 DUP6 ADD CALLDATALOAD PUSH1 0x1 PUSH1 0x1 PUSH1 0x40 SHL SUB DUP1 DUP3 GT ISZERO PUSH2 0x25E2 JUMPI PUSH0 DUP1 REVERT JUMPDEST PUSH2 0x25EE DUP9 DUP4 DUP10 ADD PUSH2 0x252A JUMP JUMPDEST SWAP5 POP PUSH1 0x40 DUP8 ADD CALLDATALOAD SWAP2 POP DUP1 DUP3 GT ISZERO PUSH2 0x2603 JUMPI PUSH0 DUP1 REVERT JUMPDEST POP PUSH2 0x2610 DUP8 DUP3 DUP9 ADD PUSH2 0x252A JUMP JUMPDEST SWAP5 SWAP8 SWAP4 SWAP7 POP SWAP4 SWAP5 PUSH1 0x60 ADD CALLDATALOAD SWAP4 POP POP POP JUMP JUMPDEST PUSH0 PUSH1 0x20 DUP3 DUP5 SUB SLT ISZERO PUSH2 0x2631 JUMPI PUSH0 DUP1 REVERT JUMPDEST DUP2 CALLDATALOAD PUSH2 0x1BCD DUP2 PUSH2 0x24C5 JUMP JUMPDEST DUP1 CALLDATALOAD PUSH1 0x2 DUP2 LT PUSH2 0x24E7 JUMPI PUSH0 DUP1 REVERT JUMPDEST PUSH0 DUP1 PUSH0 DUP1 PUSH1 0x80 DUP6 DUP8 SUB SLT ISZERO PUSH2 0x265D JUMPI PUSH0 DUP1 REVERT JUMPDEST DUP5 CALLDATALOAD PUSH2 0x2668 DUP2 PUSH2 0x24C5 JUMP JUMPDEST SWAP4 POP PUSH1 0x20 DUP6 ADD CALLDATALOAD SWAP3 POP PUSH1 0x40 DUP6 ADD CALLDATALOAD PUSH1 0x1 PUSH1 0x1 PUSH1 0x40 SHL SUB DUP2 GT ISZERO PUSH2 0x2689 JUMPI PUSH0 DUP1 REVERT JUMPDEST PUSH2 0x2695 DUP8 DUP3 DUP9 ADD PUSH2 0x252A JUMP JUMPDEST SWAP3 POP POP PUSH2 0x26A4 PUSH1 0x60 DUP7 ADD PUSH2 0x263C JUMP JUMPDEST SWAP1 POP SWAP3 SWAP6 SWAP2 SWAP5 POP SWAP3 POP JUMP JUMPDEST PUSH0 DUP2 MLOAD DUP1 DUP5 MSTORE DUP1 PUSH1 0x20 DUP5 ADD PUSH1 0x20 DUP7 ADD MCOPY PUSH0 PUSH1 0x20 DUP3 DUP7 ADD ADD MSTORE PUSH1 0x20 PUSH1 0x1F NOT PUSH1 0x1F DUP4 ADD AND DUP6 ADD ADD SWAP2 POP POP SWAP3 SWAP2 POP POP JUMP JUMPDEST DUP3 ISZERO ISZERO DUP2 MSTORE PUSH1 0x40 PUSH1 0x20 DUP3 ADD MSTORE PUSH0 PUSH2 0x1CB9 PUSH1 0x40 DUP4 ADD DUP5 PUSH2 0x26AF JUMP JUMPDEST PUSH0 DUP1 PUSH1 0x40 DUP4 DUP6 SUB SLT ISZERO PUSH2 0x2708 JUMPI PUSH0 DUP1 REVERT JUMPDEST POP POP DUP1 CALLDATALOAD SWAP3 PUSH1 0x20 SWAP1 SWAP2 ADD CALLDATALOAD SWAP2 POP JUMP JUMPDEST PUSH1 0x20 DUP2 MSTORE PUSH0 PUSH2 0x1BCD PUSH1 0x20 DUP4 ADD DUP5 PUSH2 0x26AF JUMP JUMPDEST PUSH0 PUSH1 0x20 DUP3 DUP5 SUB SLT ISZERO PUSH2 0x2739 JUMPI PUSH0 DUP1 REVERT JUMPDEST POP CALLDATALOAD SWAP2 SWAP1 POP JUMP JUMPDEST PUSH0 DUP1 DUP4 PUSH1 0x1F DUP5 ADD SLT PUSH2 0x2750 JUMPI PUSH0 DUP1 REVERT JUMPDEST POP DUP2 CALLDATALOAD PUSH1 0x1 PUSH1 0x1 PUSH1 0x40 SHL SUB DUP2 GT ISZERO PUSH2 0x2766 JUMPI PUSH0 DUP1 REVERT JUMPDEST PUSH1 0x20 DUP4 ADD SWAP2 POP DUP4 PUSH1 0x20 DUP3 DUP6 ADD ADD GT ISZERO PUSH2 0x277D JUMPI PUSH0 DUP1 REVERT JUMPDEST SWAP3 POP SWAP3 SWAP1 POP JUMP JUMPDEST PUSH0 DUP1 PUSH0 DUP1 PUSH0 DUP1 PUSH0 DUP1 PUSH0 DUP1 PUSH0 PUSH2 0x140 DUP13 DUP15 SUB SLT ISZERO PUSH2 0x279F JUMPI PUSH0 DUP1 REVERT JUMPDEST PUSH2 0x27A8 DUP13 PUSH2 0x24DC JUMP JUMPDEST SWAP11 POP PUSH1 0x20 DUP13 ADD CALLDATALOAD SWAP10 POP PUSH1 0x1 PUSH1 0x1 PUSH1 0x40 SHL SUB DUP1 PUSH1 0x40 DUP15 ADD CALLDATALOAD GT ISZERO PUSH2 0x27C9 JUMPI PUSH0 DUP1 REVERT JUMPDEST PUSH2 0x27D9 DUP15 PUSH1 0x40 DUP16 ADD CALLDATALOAD DUP16 ADD PUSH2 0x2740 JUMP JUMPDEST SWAP1 SWAP11 POP SWAP9 POP PUSH2 0x27EA PUSH1 0x60 DUP15 ADD PUSH2 0x263C JUMP JUMPDEST SWAP8 POP PUSH1 0x80 DUP14 ADD CALLDATALOAD SWAP7 POP PUSH1 0xA0 DUP14 ADD CALLDATALOAD SWAP6 POP PUSH1 0xC0 DUP14 ADD CALLDATALOAD SWAP5 POP PUSH2 0x280D PUSH1 0xE0 DUP15 ADD PUSH2 0x24DC JUMP JUMPDEST SWAP4 POP PUSH2 0x281C PUSH2 0x100 DUP15 ADD PUSH2 0x24DC JUMP JUMPDEST SWAP3 POP DUP1 PUSH2 0x120 DUP15 ADD CALLDATALOAD GT ISZERO PUSH2 0x282F JUMPI PUSH0 DUP1 REVERT JUMPDEST POP PUSH2 0x2841 DUP14 PUSH2 0x120 DUP15 ADD CALLDATALOAD DUP15 ADD PUSH2 0x252A JUMP JUMPDEST SWAP1 POP SWAP3 SWAP6 SWAP9 SWAP12 POP SWAP3 SWAP6 SWAP9 SWAP12 SWAP1 SWAP4 SWAP7 SWAP10 POP JUMP JUMPDEST PUSH0 DUP1 PUSH0 PUSH1 0x60 DUP5 DUP7 SUB SLT ISZERO PUSH2 0x2865 JUMPI PUSH0 DUP1 REVERT JUMPDEST DUP4 CALLDATALOAD SWAP3 POP PUSH1 0x20 DUP5 ADD CALLDATALOAD PUSH1 0x1 PUSH1 0x1 PUSH1 0x40 SHL SUB DUP1 DUP3 GT ISZERO PUSH2 0x2882 JUMPI PUSH0 DUP1 REVERT JUMPDEST PUSH2 0x288E DUP8 DUP4 DUP9 ADD PUSH2 0x252A JUMP JUMPDEST SWAP4 POP PUSH1 0x40 DUP7 ADD CALLDATALOAD SWAP2 POP DUP1 DUP3 GT ISZERO PUSH2 0x28A3 JUMPI PUSH0 DUP1 REVERT JUMPDEST POP PUSH2 0x28B0 DUP7 DUP3 DUP8 ADD PUSH2 0x252A JUMP JUMPDEST SWAP2 POP POP SWAP3 POP SWAP3 POP SWAP3 JUMP JUMPDEST PUSH0 DUP2 MLOAD DUP1 DUP5 MSTORE PUSH1 0x20 DUP1 DUP6 ADD SWAP5 POP PUSH1 0x20 DUP5 ADD PUSH0 JUMPDEST DUP4 DUP2 LT ISZERO PUSH2 0x28F2 JUMPI DUP2 MLOAD PUSH1 0x1 PUSH1 0x1 PUSH1 0xA0 SHL SUB AND DUP8 MSTORE SWAP6 DUP3 ADD SWAP6 SWAP1 DUP3 ADD SWAP1 PUSH1 0x1 ADD PUSH2 0x28CD JUMP JUMPDEST POP SWAP5 SWAP6 SWAP5 POP POP POP POP POP JUMP JUMPDEST PUSH1 0x20 DUP2 MSTORE PUSH0 PUSH2 0x1BCD PUSH1 0x20 DUP4 ADD DUP5 PUSH2 0x28BA JUMP JUMPDEST PUSH0 DUP1 PUSH1 0x40 DUP4 DUP6 SUB SLT ISZERO PUSH2 0x2920 JUMPI PUSH0 DUP1 REVERT JUMPDEST DUP3 CALLDATALOAD PUSH2 0x292B DUP2 PUSH2 0x24C5 JUMP JUMPDEST SWAP2 POP PUSH1 0x20 DUP4 ADD CALLDATALOAD PUSH1 0x1 PUSH1 0x1 PUSH1 0x40 SHL SUB DUP2 GT ISZERO PUSH2 0x2945 JUMPI PUSH0 DUP1 REVERT JUMPDEST PUSH2 0x2951 DUP6 DUP3 DUP7 ADD PUSH2 0x252A JUMP JUMPDEST SWAP2 POP POP SWAP3 POP SWAP3 SWAP1 POP JUMP JUMPDEST PUSH0 DUP1 PUSH0 DUP1 PUSH0 DUP1 PUSH0 DUP1 PUSH0 DUP1 PUSH2 0x100 DUP12 DUP14 SUB SLT ISZERO PUSH2 0x2975 JUMPI PUSH0 DUP1 REVERT JUMPDEST DUP11 CALLDATALOAD PUSH1 0x1 PUSH1 0x1 PUSH1 0x40 SHL SUB DUP1 DUP3 GT ISZERO PUSH2 0x298B JUMPI PUSH0 DUP1 REVERT JUMPDEST DUP2 DUP14 ADD SWAP2 POP DUP14 PUSH1 0x1F DUP4 ADD SLT PUSH2 0x299E JUMPI PUSH0 DUP1 REVERT JUMPDEST DUP2 CALLDATALOAD DUP2 DUP2 GT ISZERO PUSH2 0x29AC JUMPI PUSH0 DUP1 REVERT JUMPDEST DUP15 PUSH1 0x20 DUP3 PUSH1 0x5 SHL DUP6 ADD ADD GT ISZERO PUSH2 0x29C0 JUMPI PUSH0 DUP1 REVERT JUMPDEST PUSH1 0x20 DUP4 DUP2 ADD SWAP14 POP SWAP1 SWAP12 POP DUP14 ADD CALLDATALOAD SWAP10 POP PUSH2 0x29DB PUSH1 0x40 DUP15 ADD PUSH2 0x24DC JUMP JUMPDEST SWAP9 POP PUSH1 0x60 DUP14 ADD CALLDATALOAD SWAP2 POP DUP1 DUP3 GT ISZERO PUSH2 0x29F0 JUMPI PUSH0 DUP1 REVERT JUMPDEST POP PUSH2 0x29FD DUP14 DUP3 DUP15 ADD PUSH2 0x2740 JUMP JUMPDEST SWAP1 SWAP8 POP SWAP6 POP PUSH2 0x2A10 SWAP1 POP PUSH1 0x80 DUP13 ADD PUSH2 0x24DC JUMP JUMPDEST SWAP4 POP PUSH2 0x2A1E PUSH1 0xA0 DUP13 ADD PUSH2 0x24DC JUMP JUMPDEST SWAP3 POP PUSH1 0xC0 DUP12 ADD CALLDATALOAD SWAP2 POP PUSH2 0x2A33 PUSH1 0xE0 DUP13 ADD PUSH2 0x24DC JUMP JUMPDEST SWAP1 POP SWAP3 SWAP6 SWAP9 SWAP12 SWAP2 SWAP5 SWAP8 SWAP11 POP SWAP3 SWAP6 SWAP9 POP JUMP JUMPDEST PUSH0 DUP1 PUSH0 DUP1 PUSH0 PUSH1 0x80 DUP7 DUP9 SUB SLT ISZERO PUSH2 0x2A58 JUMPI PUSH0 DUP1 REVERT JUMPDEST DUP6 CALLDATALOAD PUSH2 0x2A63 DUP2 PUSH2 0x24C5 JUMP JUMPDEST SWAP5 POP PUSH1 0x20 DUP7 ADD CALLDATALOAD SWAP4 POP PUSH1 0x40 DUP7 ADD CALLDATALOAD PUSH1 0x1 PUSH1 0x1 PUSH1 0x40 SHL SUB DUP2 GT ISZERO PUSH2 0x2A84 JUMPI PUSH0 DUP1 REVERT JUMPDEST PUSH2 0x2A90 DUP9 DUP3 DUP10 ADD PUSH2 0x2740 JUMP JUMPDEST SWAP1 SWAP5 POP SWAP3 POP PUSH2 0x2AA3 SWAP1 POP PUSH1 0x60 DUP8 ADD PUSH2 0x263C JUMP JUMPDEST SWAP1 POP SWAP3 SWAP6 POP SWAP3 SWAP6 SWAP1 SWAP4 POP JUMP JUMPDEST PUSH1 0x40 DUP2 MSTORE PUSH0 PUSH2 0x2AC1 PUSH1 0x40 DUP4 ADD DUP6 PUSH2 0x28BA JUMP JUMPDEST SWAP1 POP PUSH1 0x1 DUP1 PUSH1 0xA0 SHL SUB DUP4 AND PUSH1 0x20 DUP4 ADD MSTORE SWAP4 SWAP3 POP POP POP JUMP JUMPDEST PUSH0 DUP1 PUSH0 DUP1 PUSH0 DUP1 PUSH0 DUP1 PUSH0 DUP1 PUSH0 PUSH2 0x140 DUP13 DUP15 SUB SLT ISZERO PUSH2 0x2AF3 JUMPI PUSH0 DUP1 REVERT JUMPDEST DUP12 CALLDATALOAD PUSH2 0x2AFE DUP2 PUSH2 0x24C5 JUMP JUMPDEST SWAP11 POP PUSH1 0x20 DUP13 ADD CALLDATALOAD SWAP10 POP PUSH1 0x40 DUP13 ADD CALLDATALOAD PUSH1 0x1 PUSH1 0x1 PUSH1 0x40 SHL SUB DUP2 GT ISZERO PUSH2 0x2B1F JUMPI PUSH0 DUP1 REVERT JUMPDEST PUSH2 0x2B2B DUP15 DUP3 DUP16 ADD PUSH2 0x2740 JUMP JUMPDEST SWAP1 SWAP11 POP SWAP9 POP PUSH2 0x2B3E SWAP1 POP PUSH1 0x60 DUP14 ADD PUSH2 0x263C JUMP JUMPDEST SWAP7 POP PUSH1 0x80 DUP13 ADD CALLDATALOAD SWAP6 POP PUSH1 0xA0 DUP13 ADD CALLDATALOAD SWAP5 POP PUSH1 0xC0 DUP13 ADD CALLDATALOAD SWAP4 POP PUSH1 0xE0 DUP13 ADD CALLDATALOAD PUSH2 0x2B63 DUP2 PUSH2 0x24C5 JUMP JUMPDEST SWAP3 POP PUSH2 0x100 DUP13 ADD CALLDATALOAD PUSH2 0x2B74 DUP2 PUSH2 0x24C5 JUMP JUMPDEST DUP1 SWAP3 POP POP PUSH2 0x120 DUP13 ADD CALLDATALOAD SWAP1 POP SWAP3 SWAP6 SWAP9 SWAP12 POP SWAP3 SWAP6 SWAP9 SWAP12 SWAP1 SWAP4 SWAP7 SWAP10 POP JUMP JUMPDEST PUSH0 DUP1 PUSH1 0x40 DUP4 DUP6 SUB SLT ISZERO PUSH2 0x2BA1 JUMPI PUSH0 DUP1 REVERT JUMPDEST DUP3 CALLDATALOAD PUSH2 0x2BAC DUP2 PUSH2 0x24C5 JUMP JUMPDEST SWAP2 POP PUSH1 0x20 DUP4 ADD CALLDATALOAD PUSH2 0x2BBC DUP2 PUSH2 0x24C5 JUMP JUMPDEST DUP1 SWAP2 POP POP SWAP3 POP SWAP3 SWAP1 POP JUMP JUMPDEST PUSH0 DUP1 PUSH0 PUSH1 0x60 DUP5 DUP7 SUB SLT ISZERO PUSH2 0x2BD9 JUMPI PUSH0 DUP1 REVERT JUMPDEST DUP4 CALLDATALOAD PUSH2 0x2BE4 DUP2 PUSH2 0x24C5 JUMP JUMPDEST SWAP3 POP PUSH1 0x20 DUP5 ADD CALLDATALOAD PUSH2 0x2BF4 DUP2 PUSH2 0x24C5 JUMP JUMPDEST SWAP2 POP PUSH1 0x40 DUP5 ADD CALLDATALOAD PUSH2 0x2C04 DUP2 PUSH2 0x24C5 JUMP JUMPDEST DUP1 SWAP2 POP POP SWAP3 POP SWAP3 POP SWAP3 JUMP JUMPDEST PUSH0 DUP1 PUSH0 PUSH1 0x60 DUP5 DUP7 SUB SLT ISZERO PUSH2 0x2C21 JUMPI PUSH0 DUP1 REVERT JUMPDEST DUP4 CALLDATALOAD PUSH2 0x2C2C DUP2 PUSH2 0x24C5 JUMP JUMPDEST SWAP3 POP PUSH1 0x20 DUP5 ADD CALLDATALOAD PUSH2 0x2C3C DUP2 PUSH2 0x24C5 JUMP JUMPDEST SWAP3 SWAP6 SWAP3 SWAP5 POP POP POP PUSH1 0x40 SWAP2 SWAP1 SWAP2 ADD CALLDATALOAD SWAP1 JUMP JUMPDEST PUSH1 0x20 DUP1 DUP3 MSTORE PUSH1 0x5 SWAP1 DUP3 ADD MSTORE PUSH5 0x4753323033 PUSH1 0xD8 SHL PUSH1 0x40 DUP3 ADD MSTORE PUSH1 0x60 ADD SWAP1 JUMP JUMPDEST PUSH1 0x20 DUP1 DUP3 MSTORE PUSH1 0x5 SWAP1 DUP3 ADD MSTORE PUSH5 0x11D4CC8C0D PUSH1 0xDA SHL PUSH1 0x40 DUP3 ADD MSTORE PUSH1 0x60 ADD SWAP1 JUMP JUMPDEST PUSH4 0x4E487B71 PUSH1 0xE0 SHL PUSH0 MSTORE PUSH1 0x11 PUSH1 0x4 MSTORE PUSH1 0x24 PUSH0 REVERT JUMPDEST PUSH0 PUSH1 0x1 DUP3 ADD PUSH2 0x2CB0 JUMPI PUSH2 0x2CB0 PUSH2 0x2C8B JUMP JUMPDEST POP PUSH1 0x1 ADD SWAP1 JUMP JUMPDEST PUSH1 0x40 DUP2 MSTORE PUSH0 PUSH2 0x2CC9 PUSH1 0x40 DUP4 ADD DUP6 PUSH2 0x26AF JUMP JUMPDEST DUP3 DUP2 SUB PUSH1 0x20 DUP5 ADD MSTORE PUSH2 0xCEB DUP2 DUP6 PUSH2 0x26AF JUMP JUMPDEST PUSH0 PUSH1 0x20 DUP3 DUP5 SUB SLT ISZERO PUSH2 0x2CEB JUMPI PUSH0 DUP1 REVERT JUMPDEST DUP2 MLOAD PUSH1 0x1 PUSH1 0x1 PUSH1 0xE0 SHL SUB NOT DUP2 AND DUP2 EQ PUSH2 0x1BCD JUMPI PUSH0 DUP1 REVERT JUMPDEST PUSH1 0xFF DUP3 DUP2 AND DUP3 DUP3 AND SUB SWAP1 DUP2 GT ISZERO PUSH2 0xC63 JUMPI PUSH2 0xC63 PUSH2 0x2C8B JUMP JUMPDEST PUSH4 0x4E487B71 PUSH1 0xE0 SHL PUSH0 MSTORE PUSH1 0x21 PUSH1 0x4 MSTORE PUSH1 0x24 PUSH0 REVERT JUMPDEST PUSH1 0x2 DUP2 LT PUSH2 0x2D4B JUMPI PUSH4 0x4E487B71 PUSH1 0xE0 SHL PUSH0 MSTORE PUSH1 0x21 PUSH1 0x4 MSTORE PUSH1 0x24 PUSH0 REVERT JUMPDEST SWAP1 MSTORE JUMP JUMPDEST PUSH1 0x1 PUSH1 0x1 PUSH1 0xA0 SHL SUB DUP7 DUP2 AND DUP3 MSTORE DUP6 AND PUSH1 0x20 DUP3 ADD MSTORE PUSH1 0x40 DUP2 ADD DUP5 SWAP1 MSTORE PUSH1 0xA0 PUSH1 0x60 DUP3 ADD DUP2 SWAP1 MSTORE PUSH0 SWAP1 PUSH2 0x2D81 SWAP1 DUP4 ADD DUP6 PUSH2 0x26AF JUMP JUMPDEST SWAP1 POP PUSH2 0x2D90 PUSH1 0x80 DUP4 ADD DUP5 PUSH2 0x2D2F JUMP JUMPDEST SWAP7 SWAP6 POP POP POP POP POP POP JUMP JUMPDEST DUP1 DUP3 MUL DUP2 ISZERO DUP3 DUP3 DIV DUP5 EQ OR PUSH2 0xC63 JUMPI PUSH2 0xC63 PUSH2 0x2C8B JUMP JUMPDEST PUSH1 0x20 DUP1 DUP3 MSTORE PUSH1 0x5 SWAP1 DUP3 ADD MSTORE PUSH5 0x4753323031 PUSH1 0xD8 SHL PUSH1 0x40 DUP3 ADD MSTORE PUSH1 0x60 ADD SWAP1 JUMP JUMPDEST DUP2 DUP4 MSTORE DUP2 DUP2 PUSH1 0x20 DUP6 ADD CALLDATACOPY POP PUSH0 DUP3 DUP3 ADD PUSH1 0x20 SWAP1 DUP2 ADD SWAP2 SWAP1 SWAP2 MSTORE PUSH1 0x1F SWAP1 SWAP2 ADD PUSH1 0x1F NOT AND SWAP1 SWAP2 ADD ADD SWAP1 JUMP JUMPDEST PUSH0 PUSH1 0x1 DUP1 PUSH1 0xA0 SHL SUB DUP1 DUP16 AND DUP4 MSTORE DUP14 PUSH1 0x20 DUP5 ADD MSTORE PUSH2 0x160 PUSH1 0x40 DUP5 ADD MSTORE PUSH2 0x2E22 PUSH2 0x160 DUP5 ADD DUP14 DUP16 PUSH2 0x2DD0 JUMP JUMPDEST PUSH2 0x2E2F PUSH1 0x60 DUP6 ADD DUP14 PUSH2 0x2D2F JUMP JUMPDEST DUP11 PUSH1 0x80 DUP6 ADD MSTORE DUP10 PUSH1 0xA0 DUP6 ADD MSTORE DUP9 PUSH1 0xC0 DUP6 ADD MSTORE DUP2 DUP9 AND PUSH1 0xE0 DUP6 ADD MSTORE DUP2 DUP8 AND PUSH2 0x100 DUP6 ADD MSTORE DUP4 DUP2 SUB PUSH2 0x120 DUP6 ADD MSTORE PUSH2 0x2E65 DUP2 DUP8 PUSH2 0x26AF JUMP JUMPDEST SWAP2 POP POP DUP3 DUP2 SUB PUSH2 0x140 DUP5 ADD MSTORE PUSH2 0x2E7B DUP2 DUP6 PUSH2 0x26AF JUMP JUMPDEST SWAP16 SWAP15 POP POP POP POP POP POP POP POP POP POP POP POP POP POP POP JUMP JUMPDEST PUSH4 0x4E487B71 PUSH1 0xE0 SHL PUSH0 MSTORE PUSH1 0x32 PUSH1 0x4 MSTORE PUSH1 0x24 PUSH0 REVERT JUMPDEST PUSH1 0x80 DUP1 DUP3 MSTORE DUP2 ADD DUP6 SWAP1 MSTORE PUSH0 DUP7 PUSH1 0xA0 DUP4 ADD DUP3 JUMPDEST DUP9 DUP2 LT ISZERO PUSH2 0x2EE4 JUMPI DUP3 CALLDATALOAD PUSH2 0x2EC7 DUP2 PUSH2 0x24C5 JUMP JUMPDEST PUSH1 0x1 PUSH1 0x1 PUSH1 0xA0 SHL SUB AND DUP3 MSTORE PUSH1 0x20 SWAP3 DUP4 ADD SWAP3 SWAP1 SWAP2 ADD SWAP1 PUSH1 0x1 ADD PUSH2 0x2EB4 JUMP JUMPDEST POP PUSH1 0x20 DUP5 ADD SWAP7 SWAP1 SWAP7 MSTORE POP POP PUSH1 0x1 PUSH1 0x1 PUSH1 0xA0 SHL SUB SWAP3 DUP4 AND PUSH1 0x40 DUP3 ADD MSTORE SWAP2 AND PUSH1 0x60 SWAP1 SWAP2 ADD MSTORE SWAP3 SWAP2 POP POP JUMP JUMPDEST DUP2 DUP2 SUB DUP2 DUP2 GT ISZERO PUSH2 0xC63 JUMPI PUSH2 0xC63 PUSH2 0x2C8B JUMP JUMPDEST DUP2 DUP4 DUP3 CALLDATACOPY PUSH0 SWAP2 ADD SWAP1 DUP2 MSTORE SWAP2 SWAP1 POP JUMP JUMPDEST DUP12 DUP2 MSTORE PUSH1 0x1 PUSH1 0x1 PUSH1 0xA0 SHL SUB DUP12 DUP2 AND PUSH1 0x20 DUP4 ADD MSTORE PUSH1 0x40 DUP3 ADD DUP12 SWAP1 MSTORE PUSH1 0x60 DUP3 ADD DUP11 SWAP1 MSTORE PUSH2 0x160 DUP3 ADD SWAP1 PUSH2 0x2F63 PUSH1 0x80 DUP5 ADD DUP12 PUSH2 0x2D2F JUMP JUMPDEST PUSH1 0xA0 DUP4 ADD SWAP9 SWAP1 SWAP9 MSTORE PUSH1 0xC0 DUP3 ADD SWAP7 SWAP1 SWAP7 MSTORE PUSH1 0xE0 DUP2 ADD SWAP5 SWAP1 SWAP5 MSTORE SWAP2 DUP6 AND PUSH2 0x100 DUP5 ADD MSTORE SWAP1 SWAP4 AND PUSH2 0x120 DUP3 ADD MSTORE PUSH2 0x140 ADD SWAP2 SWAP1 SWAP2 MSTORE SWAP6 SWAP5 POP POP POP POP POP JUMP JUMPDEST PUSH0 DUP2 PUSH2 0x2FAC JUMPI PUSH2 0x2FAC PUSH2 0x2C8B JUMP JUMPDEST POP PUSH0 NOT ADD SWAP1 JUMP JUMPDEST PUSH0 DUP3 PUSH2 0x2FCD JUMPI PUSH4 0x4E487B71 PUSH1 0xE0 SHL PUSH0 MSTORE PUSH1 0x12 PUSH1 0x4 MSTORE PUSH1 0x24 PUSH0 REVERT JUMPDEST POP DIV SWAP1 JUMP JUMPDEST DUP1 DUP3 ADD DUP1 DUP3 GT ISZERO PUSH2 0xC63 JUMPI PUSH2 0xC63 PUSH2 0x2C8B JUMP JUMPDEST PUSH0 PUSH1 0x1 DUP1 PUSH1 0xA0 SHL SUB DUP1 DUP16 AND DUP4 MSTORE DUP14 PUSH1 0x20 DUP5 ADD MSTORE PUSH2 0x160 PUSH1 0x40 DUP5 ADD MSTORE PUSH2 0x300F PUSH2 0x160 DUP5 ADD DUP14 DUP16 PUSH2 0x2DD0 JUMP JUMPDEST PUSH2 0x301C PUSH1 0x60 DUP6 ADD DUP14 PUSH2 0x2D2F JUMP JUMPDEST DUP11 PUSH1 0x80 DUP6 ADD MSTORE DUP10 PUSH1 0xA0 DUP6 ADD MSTORE DUP9 PUSH1 0xC0 DUP6 ADD MSTORE DUP2 DUP9 AND PUSH1 0xE0 DUP6 ADD MSTORE DUP2 DUP8 AND PUSH2 0x100 DUP6 ADD MSTORE DUP4 DUP2 SUB PUSH2 0x120 DUP6 ADD MSTORE PUSH2 0x3052 DUP2 DUP8 PUSH2 0x26AF JUMP JUMPDEST SWAP3 POP POP DUP1 DUP5 AND PUSH2 0x140 DUP5 ADD MSTORE POP SWAP14 SWAP13 POP POP POP POP POP POP POP POP POP POP POP POP POP JUMP INVALID LOG2 PUSH5 0x6970667358 0x22 SLT KECCAK256 0xD5 0x1F BASEFEE 0xBE NOT DUP5 SWAP5 PUSH8 0x617321B1263F9A5F 0xEF OR PUSH0 PREVRANDAO 0xCC CALL ADDRESS 0xC SWAP11 PUSH18 0xE7C97C5992FF64736F6C6343000819003300 "
		},
		"gasEstimates": {
			"creation": {
				"codeDepositCost": "2490800",
				"executionCost": "24792",
				"totalCost": "2515592"
			},
			"external": {
				"": "infinite",
				"VERSION()": "infinite",
				"addOwnerWithThreshold(address,uint256)": "infinite",
				"approveHash(bytes32)": "26256",
				"approvedHashes(address,bytes32)": "2670",
				"changeThreshold(uint256)": "25708",
				"checkNSignatures(bytes32,bytes,bytes,uint256)": "infinite",
				"checkSignatures(bytes32,bytes,bytes)": "infinite",
				"disableModule(address,address)": "infinite",
				"domainSeparator()": "451",
				"enableModule(address)": "54476",
				"encodeTransactionData(address,uint256,bytes,uint8,uint256,uint256,uint256,address,address,uint256)": "infinite",
				"execTransaction(address,uint256,bytes,uint8,uint256,uint256,uint256,address,address,bytes)": "infinite",
				"execTransactionFromModule(address,uint256,bytes,uint8)": "infinite",
				"execTransactionFromModuleReturnData(address,uint256,bytes,uint8)": "infinite",
				"getChainId()": "247",
				"getModulesPaginated(address,uint256)": "infinite",
				"getOwners()": "infinite",
				"getStorageAt(uint256,uint256)": "infinite",
				"getThreshold()": "2380",
				"getTransactionHash(address,uint256,bytes,uint8,uint256,uint256,uint256,address,address,uint256)": "infinite",
				"isModuleEnabled(address)": "2702",
				"isOwner(address)": "2651",
				"nonce()": "2340",
				"removeOwner(address,address,uint256)": "infinite",
				"requiredTxGas(address,uint256,bytes,uint8)": "infinite",
				"setFallbackHandler(address)": "23590",
				"setGuard(address)": "23584",
				"setup(address[],uint256,address,bytes,address,address,uint256,address)": "infinite",
				"signedMessages(bytes32)": "2503",
				"simulateAndRevert(address,bytes)": "infinite",
				"swapOwner(address,address,address)": "infinite"
			}
		},
		"methodIdentifiers": {
			"VERSION()": "ffa1ad74",
			"addOwnerWithThreshold(address,uint256)": "0d582f13",
			"approveHash(bytes32)": "d4d9bdcd",
			"approvedHashes(address,bytes32)": "7d832974",
			"changeThreshold(uint256)": "694e80c3",
			"checkNSignatures(bytes32,bytes,bytes,uint256)": "12fb68e0",
			"checkSignatures(bytes32,bytes,bytes)": "934f3a11",
			"disableModule(address,address)": "e009cfde",
			"domainSeparator()": "f698da25",
			"enableModule(address)": "610b5925",
			"encodeTransactionData(address,uint256,bytes,uint8,uint256,uint256,uint256,address,address,uint256)": "e86637db",
			"execTransaction(address,uint256,bytes,uint8,uint256,uint256,uint256,address,address,bytes)": "6a761202",
			"execTransactionFromModule(address,uint256,bytes,uint8)": "468721a7",
			"execTransactionFromModuleReturnData(address,uint256,bytes,uint8)": "5229073f",
			"getChainId()": "3408e470",
			"getModulesPaginated(address,uint256)": "cc2f8452",
			"getOwners()": "a0e67e2b",
			"getStorageAt(uint256,uint256)": "5624b25b",
			"getThreshold()": "e75235b8",
			"getTransactionHash(address,uint256,bytes,uint8,uint256,uint256,uint256,address,address,uint256)": "d8d11f78",
			"isModuleEnabled(address)": "2d9ad53d",
			"isOwner(address)": "2f54bf6e",
			"nonce()": "affed0e0",
			"removeOwner(address,address,uint256)": "f8dc5dd9",
			"requiredTxGas(address,uint256,bytes,uint8)": "c4ca3a9c",
			"setFallbackHandler(address)": "f08a0323",
			"setGuard(address)": "e19a9dd9",
			"setup(address[],uint256,address,bytes,address,address,uint256,address)": "b63e800d",
			"signedMessages(bytes32)": "5ae6bd37",
			"simulateAndRevert(address,bytes)": "b4faba09",
			"swapOwner(address,address,address)": "e318b52b"
		}
	},
	"abi": [
		{
			"anonymous": false,
			"inputs": [
				{
					"indexed": false,
					"internalType": "address",
					"name": "owner",
					"type": "address"
				}
			],
			"name": "AddedOwner",
			"type": "event"
		},
		{
			"anonymous": false,
			"inputs": [
				{
					"indexed": true,
					"internalType": "bytes32",
					"name": "approvedHash",
					"type": "bytes32"
				},
				{
					"indexed": true,
					"internalType": "address",
					"name": "owner",
					"type": "address"
				}
			],
			"name": "ApproveHash",
			"type": "event"
		},
		{
			"anonymous": false,
			"inputs": [
				{
					"indexed": false,
					"internalType": "address",
					"name": "handler",
					"type": "address"
				}
			],
			"name": "ChangedFallbackHandler",
			"type": "event"
		},
		{
			"anonymous": false,
			"inputs": [
				{
					"indexed": false,
					"internalType": "address",
					"name": "guard",
					"type": "address"
				}
			],
			"name": "ChangedGuard",
			"type": "event"
		},
		{
			"anonymous": false,
			"inputs": [
				{
					"indexed": false,
					"internalType": "uint256",
					"name": "threshold",
					"type": "uint256"
				}
			],
			"name": "ChangedThreshold",
			"type": "event"
		},
		{
			"anonymous": false,
			"inputs": [
				{
					"indexed": false,
					"internalType": "address",
					"name": "module",
					"type": "address"
				}
			],
			"name": "DisabledModule",
			"type": "event"
		},
		{
			"anonymous": false,
			"inputs": [
				{
					"indexed": false,
					"internalType": "address",
					"name": "module",
					"type": "address"
				}
			],
			"name": "EnabledModule",
			"type": "event"
		},
		{
			"anonymous": false,
			"inputs": [
				{
					"indexed": false,
					"internalType": "bytes32",
					"name": "txHash",
					"type": "bytes32"
				},
				{
					"indexed": false,
					"internalType": "uint256",
					"name": "payment",
					"type": "uint256"
				}
			],
			"name": "ExecutionFailure",
			"type": "event"
		},
		{
			"anonymous": false,
			"inputs": [
				{
					"indexed": true,
					"internalType": "address",
					"name": "module",
					"type": "address"
				}
			],
			"name": "ExecutionFromModuleFailure",
			"type": "event"
		},
		{
			"anonymous": false,
			"inputs": [
				{
					"indexed": true,
					"internalType": "address",
					"name": "module",
					"type": "address"
				}
			],
			"name": "ExecutionFromModuleSuccess",
			"type": "event"
		},
		{
			"anonymous": false,
			"inputs": [
				{
					"indexed": false,
					"internalType": "bytes32",
					"name": "txHash",
					"type": "bytes32"
				},
				{
					"indexed": false,
					"internalType": "uint256",
					"name": "payment",
					"type": "uint256"
				}
			],
			"name": "ExecutionSuccess",
			"type": "event"
		},
		{
			"anonymous": false,
			"inputs": [
				{
					"indexed": false,
					"internalType": "address",
					"name": "owner",
					"type": "address"
				}
			],
			"name": "RemovedOwner",
			"type": "event"
		},
		{
			"anonymous": false,
			"inputs": [
				{
					"indexed": false,
					"internalType": "address",
					"name": "module",
					"type": "address"
				},
				{
					"indexed": false,
					"internalType": "address",
					"name": "to",
					"type": "address"
				},
				{
					"indexed": false,
					"internalType": "uint256",
					"name": "value",
					"type": "uint256"
				},
				{
					"indexed": false,
					"internalType": "bytes",
					"name": "data",
					"type": "bytes"
				},
				{
					"indexed": false,
					"internalType": "enum Enum.Operation",
					"name": "operation",
					"type": "uint8"
				}
			],
			"name": "SafeModuleTransaction",
			"type": "event"
		},
		{
			"anonymous": false,
			"inputs": [
				{
					"indexed": false,
					"internalType": "address",
					"name": "to",
					"type": "address"
				},
				{
					"indexed": false,
					"internalType": "uint256",
					"name": "value",
					"type": "uint256"
				},
				{
					"indexed": false,
					"internalType": "bytes",
					"name": "data",
					"type": "bytes"
				},
				{
					"indexed": false,
					"internalType": "enum Enum.Operation",
					"name": "operation",
					"type": "uint8"
				},
				{
					"indexed": false,
					"internalType": "uint256",
					"name": "safeTxGas",
					"type": "uint256"
				},
				{
					"indexed": false,
					"internalType": "uint256",
					"name": "baseGas",
					"type": "uint256"
				},
				{
					"indexed": false,
					"internalType": "uint256",
					"name": "gasPrice",
					"type": "uint256"
				},
				{
					"indexed": false,
					"internalType": "address",
					"name": "gasToken",
					"type": "address"
				},
				{
					"indexed": false,
					"internalType": "address payable",
					"name": "refundReceiver",
					"type": "address"
				},
				{
					"indexed": false,
					"internalType": "bytes",
					"name": "signatures",
					"type": "bytes"
				},
				{
					"indexed": false,
					"internalType": "bytes",
					"name": "additionalInfo",
					"type": "bytes"
				}
			],
			"name": "SafeMultiSigTransaction",
			"type": "event"
		},
		{
			"anonymous": false,
			"inputs": [
				{
					"indexed": true,
					"internalType": "address",
					"name": "sender",
					"type": "address"
				},
				{
					"indexed": false,
					"internalType": "uint256",
					"name": "value",
					"type": "uint256"
				}
			],
			"name": "SafeReceived",
			"type": "event"
		},
		{
			"anonymous": false,
			"inputs": [
				{
					"indexed": true,
					"internalType": "address",
					"name": "initiator",
					"type": "address"
				},
				{
					"indexed": false,
					"internalType": "address[]",
					"name": "owners",
					"type": "address[]"
				},
				{
					"indexed": false,
					"internalType": "uint256",
					"name": "threshold",
					"type": "uint256"
				},
				{
					"indexed": false,
					"internalType": "address",
					"name": "initializer",
					"type": "address"
				},
				{
					"indexed": false,
					"internalType": "address",
					"name": "fallbackHandler",
					"type": "address"
				}
			],
			"name": "SafeSetup",
			"type": "event"
		},
		{
			"anonymous": false,
			"inputs": [
				{
					"indexed": true,
					"internalType": "bytes32",
					"name": "msgHash",
					"type": "bytes32"
				}
			],
			"name": "SignMsg",
			"type": "event"
		},
		{
			"stateMutability": "nonpayable",
			"type": "fallback"
		},
		{
			"inputs": [],
			"name": "VERSION",
			"outputs": [
				{
					"internalType": "string",
					"name": "",
					"type": "string"
				}
			],
			"stateMutability": "view",
			"type": "function"
		},
		{
			"inputs": [
				{
					"internalType": "address",
					"name": "owner",
					"type": "address"
				},
				{
					"internalType": "uint256",
					"name": "_threshold",
					"type": "uint256"
				}
			],
			"name": "addOwnerWithThreshold",
			"outputs": [],
			"stateMutability": "nonpayable",
			"type": "function"
		},
		{
			"inputs": [
				{
					"internalType": "bytes32",
					"name": "hashToApprove",
					"type": "bytes32"
				}
			],
			"name": "approveHash",
			"outputs": [],
			"stateMutability": "nonpayable",
			"type": "function"
		},
		{
			"inputs": [
				{
					"internalType": "address",
					"name": "",
					"type": "address"
				},
				{
					"internalType": "bytes32",
					"name": "",
					"type": "bytes32"
				}
			],
			"name": "approvedHashes",
			"outputs": [
				{
					"internalType": "uint256",
					"name": "",
					"type": "uint256"
				}
			],
			"stateMutability": "view",
			"type": "function"
		},
		{
			"inputs": [
				{
					"internalType": "uint256",
					"name": "_threshold",
					"type": "uint256"
				}
			],
			"name": "changeThreshold",
			"outputs": [],
			"stateMutability": "nonpayable",
			"type": "function"
		},
		{
			"inputs": [
				{
					"internalType": "bytes32",
					"name": "dataHash",
					"type": "bytes32"
				},
				{
					"internalType": "bytes",
					"name": "data",
					"type": "bytes"
				},
				{
					"internalType": "bytes",
					"name": "signatures",
					"type": "bytes"
				},
				{
					"internalType": "uint256",
					"name": "requiredSignatures",
					"type": "uint256"
				}
			],
			"name": "checkNSignatures",
			"outputs": [],
			"stateMutability": "view",
			"type": "function"
		},
		{
			"inputs": [
				{
					"internalType": "bytes32",
					"name": "dataHash",
					"type": "bytes32"
				},
				{
					"internalType": "bytes",
					"name": "data",
					"type": "bytes"
				},
				{
					"internalType": "bytes",
					"name": "signatures",
					"type": "bytes"
				}
			],
			"name": "checkSignatures",
			"outputs": [],
			"stateMutability": "view",
			"type": "function"
		},
		{
			"inputs": [
				{
					"internalType": "address",
					"name": "prevModule",
					"type": "address"
				},
				{
					"internalType": "address",
					"name": "module",
					"type": "address"
				}
			],
			"name": "disableModule",
			"outputs": [],
			"stateMutability": "nonpayable",
			"type": "function"
		},
		{
			"inputs": [],
			"name": "domainSeparator",
			"outputs": [
				{
					"internalType": "bytes32",
					"name": "",
					"type": "bytes32"
				}
			],
			"stateMutability": "view",
			"type": "function"
		},
		{
			"inputs": [
				{
					"internalType": "address",
					"name": "module",
					"type": "address"
				}
			],
			"name": "enableModule",
			"outputs": [],
			"stateMutability": "nonpayable",
			"type": "function"
		},
		{
			"inputs": [
				{
					"internalType": "address",
					"name": "to",
					"type": "address"
				},
				{
					"internalType": "uint256",
					"name": "value",
					"type": "uint256"
				},
				{
					"internalType": "bytes",
					"name": "data",
					"type": "bytes"
				},
				{
					"internalType": "enum Enum.Operation",
					"name": "operation",
					"type": "uint8"
				},
				{
					"internalType": "uint256",
					"name": "safeTxGas",
					"type": "uint256"
				},
				{
					"internalType": "uint256",
					"name": "baseGas",
					"type": "uint256"
				},
				{
					"internalType": "uint256",
					"name": "gasPrice",
					"type": "uint256"
				},
				{
					"internalType": "address",
					"name": "gasToken",
					"type": "address"
				},
				{
					"internalType": "address",
					"name": "refundReceiver",
					"type": "address"
				},
				{
					"internalType": "uint256",
					"name": "_nonce",
					"type": "uint256"
				}
			],
			"name": "encodeTransactionData",
			"outputs": [
				{
					"internalType": "bytes",
					"name": "",
					"type": "bytes"
				}
			],
			"stateMutability": "view",
			"type": "function"
		},
		{
			"inputs": [
				{
					"internalType": "address",
					"name": "to",
					"type": "address"
				},
				{
					"internalType": "uint256",
					"name": "value",
					"type": "uint256"
				},
				{
					"internalType": "bytes",
					"name": "data",
					"type": "bytes"
				},
				{
					"internalType": "enum Enum.Operation",
					"name": "operation",
					"type": "uint8"
				},
				{
					"internalType": "uint256",
					"name": "safeTxGas",
					"type": "uint256"
				},
				{
					"internalType": "uint256",
					"name": "baseGas",
					"type": "uint256"
				},
				{
					"internalType": "uint256",
					"name": "gasPrice",
					"type": "uint256"
				},
				{
					"internalType": "address",
					"name": "gasToken",
					"type": "address"
				},
				{
					"internalType": "address payable",
					"name": "refundReceiver",
					"type": "address"
				},
				{
					"internalType": "bytes",
					"name": "signatures",
					"type": "bytes"
				}
			],
			"name": "execTransaction",
			"outputs": [
				{
					"internalType": "bool",
					"name": "",
					"type": "bool"
				}
			],
			"stateMutability": "payable",
			"type": "function"
		},
		{
			"inputs": [
				{
					"internalType": "address",
					"name": "to",
					"type": "address"
				},
				{
					"internalType": "uint256",
					"name": "value",
					"type": "uint256"
				},
				{
					"internalType": "bytes",
					"name": "data",
					"type": "bytes"
				},
				{
					"internalType": "enum Enum.Operation",
					"name": "operation",
					"type": "uint8"
				}
			],
			"name": "execTransactionFromModule",
			"outputs": [
				{
					"internalType": "bool",
					"name": "success",
					"type": "bool"
				}
			],
			"stateMutability": "nonpayable",
			"type": "function"
		},
		{
			"inputs": [
				{
					"internalType": "address",
					"name": "to",
					"type": "address"
				},
				{
					"internalType": "uint256",
					"name": "value",
					"type": "uint256"
				},
				{
					"internalType": "bytes",
					"name": "data",
					"type": "bytes"
				},
				{
					"internalType": "enum Enum.Operation",
					"name": "operation",
					"type": "uint8"
				}
			],
			"name": "execTransactionFromModuleReturnData",
			"outputs": [
				{
					"internalType": "bool",
					"name": "success",
					"type": "bool"
				},
				{
					"internalType": "bytes",
					"name": "returnData",
					"type": "bytes"
				}
			],
			"stateMutability": "nonpayable",
			"type": "function"
		},
		{
			"inputs": [],
			"name": "getChainId",
			"outputs": [
				{
					"internalType": "uint256",
					"name": "",
					"type": "uint256"
				}
			],
			"stateMutability": "view",
			"type": "function"
		},
		{
			"inputs": [
				{
					"internalType": "address",
					"name": "start",
					"type": "address"
				},
				{
					"internalType": "uint256",
					"name": "pageSize",
					"type": "uint256"
				}
			],
			"name": "getModulesPaginated",
			"outputs": [
				{
					"internalType": "address[]",
					"name": "array",
					"type": "address[]"
				},
				{
					"internalType": "address",
					"name": "next",
					"type": "address"
				}
			],
			"stateMutability": "view",
			"type": "function"
		},
		{
			"inputs": [],
			"name": "getOwners",
			"outputs": [
				{
					"internalType": "address[]",
					"name": "",
					"type": "address[]"
				}
			],
			"stateMutability": "view",
			"type": "function"
		},
		{
			"inputs": [
				{
					"internalType": "uint256",
					"name": "offset",
					"type": "uint256"
				},
				{
					"internalType": "uint256",
					"name": "length",
					"type": "uint256"
				}
			],
			"name": "getStorageAt",
			"outputs": [
				{
					"internalType": "bytes",
					"name": "",
					"type": "bytes"
				}
			],
			"stateMutability": "view",
			"type": "function"
		},
		{
			"inputs": [],
			"name": "getThreshold",
			"outputs": [
				{
					"internalType": "uint256",
					"name": "",
					"type": "uint256"
				}
			],
			"stateMutability": "view",
			"type": "function"
		},
		{
			"inputs": [
				{
					"internalType": "address",
					"name": "to",
					"type": "address"
				},
				{
					"internalType": "uint256",
					"name": "value",
					"type": "uint256"
				},
				{
					"internalType": "bytes",
					"name": "data",
					"type": "bytes"
				},
				{
					"internalType": "enum Enum.Operation",
					"name": "operation",
					"type": "uint8"
				},
				{
					"internalType": "uint256",
					"name": "safeTxGas",
					"type": "uint256"
				},
				{
					"internalType": "uint256",
					"name": "baseGas",
					"type": "uint256"
				},
				{
					"internalType": "uint256",
					"name": "gasPrice",
					"type": "uint256"
				},
				{
					"internalType": "address",
					"name": "gasToken",
					"type": "address"
				},
				{
					"internalType": "address",
					"name": "refundReceiver",
					"type": "address"
				},
				{
					"internalType": "uint256",
					"name": "_nonce",
					"type": "uint256"
				}
			],
			"name": "getTransactionHash",
			"outputs": [
				{
					"internalType": "bytes32",
					"name": "",
					"type": "bytes32"
				}
			],
			"stateMutability": "view",
			"type": "function"
		},
		{
			"inputs": [
				{
					"internalType": "address",
					"name": "module",
					"type": "address"
				}
			],
			"name": "isModuleEnabled",
			"outputs": [
				{
					"internalType": "bool",
					"name": "",
					"type": "bool"
				}
			],
			"stateMutability": "view",
			"type": "function"
		},
		{
			"inputs": [
				{
					"internalType": "address",
					"name": "owner",
					"type": "address"
				}
			],
			"name": "isOwner",
			"outputs": [
				{
					"internalType": "bool",
					"name": "",
					"type": "bool"
				}
			],
			"stateMutability": "view",
			"type": "function"
		},
		{
			"inputs": [],
			"name": "nonce",
			"outputs": [
				{
					"internalType": "uint256",
					"name": "",
					"type": "uint256"
				}
			],
			"stateMutability": "view",
			"type": "function"
		},
		{
			"inputs": [
				{
					"internalType": "address",
					"name": "prevOwner",
					"type": "address"
				},
				{
					"internalType": "address",
					"name": "owner",
					"type": "address"
				},
				{
					"internalType": "uint256",
					"name": "_threshold",
					"type": "uint256"
				}
			],
			"name": "removeOwner",
			"outputs": [],
			"stateMutability": "nonpayable",
			"type": "function"
		},
		{
			"inputs": [
				{
					"internalType": "address",
					"name": "to",
					"type": "address"
				},
				{
					"internalType": "uint256",
					"name": "value",
					"type": "uint256"
				},
				{
					"internalType": "bytes",
					"name": "data",
					"type": "bytes"
				},
				{
					"internalType": "enum Enum.Operation",
					"name": "operation",
					"type": "uint8"
				}
			],
			"name": "requiredTxGas",
			"outputs": [
				{
					"internalType": "uint256",
					"name": "",
					"type": "uint256"
				}
			],
			"stateMutability": "nonpayable",
			"type": "function"
		},
		{
			"inputs": [
				{
					"internalType": "address",
					"name": "handler",
					"type": "address"
				}
			],
			"name": "setFallbackHandler",
			"outputs": [],
			"stateMutability": "nonpayable",
			"type": "function"
		},
		{
			"inputs": [
				{
					"internalType": "address",
					"name": "guard",
					"type": "address"
				}
			],
			"name": "setGuard",
			"outputs": [],
			"stateMutability": "nonpayable",
			"type": "function"
		},
		{
			"inputs": [
				{
					"internalType": "address[]",
					"name": "_owners",
					"type": "address[]"
				},
				{
					"internalType": "uint256",
					"name": "_threshold",
					"type": "uint256"
				},
				{
					"internalType": "address",
					"name": "to",
					"type": "address"
				},
				{
					"internalType": "bytes",
					"name": "data",
					"type": "bytes"
				},
				{
					"internalType": "address",
					"name": "fallbackHandler",
					"type": "address"
				},
				{
					"internalType": "address",
					"name": "paymentToken",
					"type": "address"
				},
				{
					"internalType": "uint256",
					"name": "payment",
					"type": "uint256"
				},
				{
					"internalType": "address payable",
					"name": "paymentReceiver",
					"type": "address"
				}
			],
			"name": "setup",
			"outputs": [],
			"stateMutability": "nonpayable",
			"type": "function"
		},
		{
			"inputs": [
				{
					"internalType": "bytes32",
					"name": "",
					"type": "bytes32"
				}
			],
			"name": "signedMessages",
			"outputs": [
				{
					"internalType": "uint256",
					"name": "",
					"type": "uint256"
				}
			],
			"stateMutability": "view",
			"type": "function"
		},
		{
			"inputs": [
				{
					"internalType": "address",
					"name": "targetContract",
					"type": "address"
				},
				{
					"internalType": "bytes",
					"name": "calldataPayload",
					"type": "bytes"
				}
			],
			"name": "simulateAndRevert",
			"outputs": [],
			"stateMutability": "nonpayable",
			"type": "function"
		},
		{
			"inputs": [
				{
					"internalType": "address",
					"name": "prevOwner",
					"type": "address"
				},
				{
					"internalType": "address",
					"name": "oldOwner",
					"type": "address"
				},
				{
					"internalType": "address",
					"name": "newOwner",
					"type": "address"
				}
			],
			"name": "swapOwner",
			"outputs": [],
			"stateMutability": "nonpayable",
			"type": "function"
		},
		{
			"stateMutability": "payable",
			"type": "receive"
		}
	]
}